:020000040800F2
:1000000088090020D500000871240008051E00089A
:1000100000000000000000000000000000000000E0
:10002000000000000000000000000000752400082F
:10003000000000000000000073240008772400087E
:10004000000000000000000000000000E7000008C1
:10005000E7000008E7000008E7000008E7000008E4
:100060000000000000000000000000000000000090
:10007000E7000008E7000008E700000800000000B3
:1000800000000000E7000008000000000000000081
:1000900000000000E700000800000000091E000842
:1000A00000000000E700000800000000E700000872
:1000B0000000000000000000000000000000000040
:1000C0000348854600F02CFB0048004779080008EB
:1000D000880900200448804704480047FEE7FEE7FF
:1000E000FEE7FEE7FEE7FEE775250008C100000811
:1000F000D2B201E00270401C491EFBD270470022C0
:10010000F6E710B513460A4604461946FFF7F0FF16
:10011000204610BD024670B54A40D30FDB074000B1
:100120002DD04A002AD0010E140E00021202091925
:10013000400A520A8418E50104465443000A120A90
:100140002E045043A4194219200CC543AA18120CBE
:100150000125AD03521C521912047F39240400D02A
:10016000521C104301D44000491EC2B20C06C00903
:100170002018401C4008802A02D003E0002070BDF7
:1001800040084000002900DA0020184370BD70B517
:1001900002464A40D50F40004A00ED074008520889
:1001A000002814D0002A12D0C40DD30D4102012022
:1001B000C0055202490A520AE41A091812187D347D
:1001C000914201D3641C00E04900002C01DA0020B8
:1001D00070BD0023914201D3891A034340084900AE
:1001E0000028F7D100290AD0914202D10121C90784
:1001F00005E0914201D2012101E00121C943E0055E
:10020000C018401900F084F870BD10B50022962384
:10021000114600F085F810BDC20F410040020123D5
:10022000400ADB05D207090EC0187F2901DA002039
:100230007047962903DC9623591AC84001E0963985
:100240008840002AF4D040427047C20FD2074000D5
:1002500040080BD0C10D0723DB01C9184002090576
:10026000400A1143C208400711437047002001466D
:10027000704770B50446002903D0002020220123D6
:1002800010E0002801D00020C043C046C0460DE069
:100290002546D5408D4205D30D469540641B1D462D
:1002A000954040191546521E002DF1DC214670BDC7
:1002B000F0B51FB40646002082B0054640240191E7
:1002C00000901BE0019922460F46304600F050FA9C
:1002D000049A059B801A994110D31046194622466C
:1002E00000F036FA361A8F4101972246012000218C
:1002F000009F00F02DFA38184D4100902046641EF2
:100300000028DFDC019B00982946324607B0F0BD8B
:10031000002904DA401C490001D140084000704720
:1003200070B40024050C05D11024000402D100296A
:1003300021D01124050E01D100020834050F01D18E
:100340000001241D850F01D18000A41C002801DBC1
:100350004000641C002908D020252E1B0D46F540C6
:10036000A14000D001212943084301061B1B000ABC
:10037000DB1D02D5002070BC7047DB051818801803
:100380000029F8DA401C4900F5D170BC4008400053
:1003900070470000F0B507460846584087B0C00FC8
:1003A000049048000E46590040084908BC1A88418C
:1003B00005D2384631461E4617460B4602465800BF
:1003C000400810434CD0300D039040055900400DBB
:1003D000490D0590401A0290402872DA1803012155
:1003E000000B09050843019004980092002805D0ED
:1003F00001995242002088410092019002984021C8
:100400000A1A0199009800F0A3F905460C466B46BC
:1004100007CB00F0BEF9C0197141039A0E0D0023FD
:10042000D71756401A467A40164344D0049A002AF9
:100430002DD0029A012A039A15DC1205C01A9141A7
:1004400001263605001C7141D20F059ED20700938C
:10045000019202962A46234600F0BBF907B0F0BD90
:1004600038463146FAE71605224A0F46B218C01A36
:10047000B74101210905001C4F4100187F41114679
:1004800018187941E20F10436D19644113E0E20737
:100490006D0815436408C2071443039A0126120528
:1004A000C01A91413605001C7141CE074008304307
:1004B0004908C01851412A46234600F07DF9CDE78E
:1004C000FFE7049801224000C117121A00238B4154
:1004D00004983146C417381AA141EEE730B401241C
:1004E000E407634030BC55E730B40124E4076140C1
:1004F00030BC4FE70000E0FFF0B51FB488B00B99A7
:100500000998002448400999C00F490049080991F9
:10051000C0070B990090490049080B910999089868
:10052000A64608431CD00B990A98084318D009988E
:1005300001244000420D4800410D099824050003A4
:10054000000B204309900B980003000B20430B90F5
:1005500050181C494018002201901446104605E02E
:10056000002001460DB0F0BD032801DA034600E08B
:1005700003239C46C11A0AAE0AE05F0008ADED5B9A
:100580004F00F75B7D430027AA187C41491C5B1E86
:100590006145F2DD410004AB5A522104120C0A43BA
:1005A000240C401C0828DFDB01980290009970465B
:1005B00001910090059B049A0799069800F009F9AB
:1005C000D0E700000DFCFFFFF0B50C465C4085B0A5
:1005D000E40FE40703944C00002664085900944695
:1005E000490802460296224321D062460A431ED0A1
:1005F0006200570D4A000E032303550D01240246E5
:100600002C492405781B1B0B360B4018234326432B
:10061000614600901C46501AB44103D30098401C18
:10062000009002E0921800985B41002803DA002055
:10063000014605B0F0BD00200121090507468646A8
:1006400011E064461D46141BB54106D36546521B96
:10065000B341744607430C43A646CD0740084908FA
:10066000284392185B4105460D43EAD110461843D2
:1006700013D06046194650407140084306D060468A
:10068000101AB34106D20122002306E00022012302
:10069000DB0702E00122D2435310009874460105A3
:1006A000381C6141029C039D0019694100F084F8E7
:1006B000BFE70000FD0300004A0009030123090B06
:1006C0001B0519430A4B10B5520D9A4202DA00205D
:1006D000014610BD064B34339A4203DC9A1A00F0EF
:1006E00047F810BD034BD21800F032F810BD0000DF
:1006F000FF030000CDFBFFFF10B5002904DB012440
:10070000E40740428C412146002B04DB1C460123B8
:10071000DB075242A341994200D1904210BD000034
:100720001CB5094800900948019005460126009C27
:1007300005E0E36807CC33430C3C98471034AC42E7
:10074000F7D3FFF7C1FC0000583F0008783F0008CE
:1007500010B5202A04DB0146203A9140002010BD4C
:10076000914020239C1A0346E3401943904010BD5A
:1007700010B5202A04DB0846203AD040002110BDE5
:100780000B46D340D0402024A21A9140084319467A
:1007900010BD10B5202A06DBCB170846203A1041C1
:1007A000C1170B4306E00B461341D0402024A21A88
:1007B00091400843194610BD10B5002B08DA0024FB
:1007C000401C614192185B411A4301D1400840002E
:1007D00010BDF0B51FB482B005460C0003D008462A
:1007E00002F038FB02E002F035FB203002460090B8
:1007F00021462846FFF7ACFF049B059A04460F46A6
:1008000018431143084314D0184610431BD00098D6
:1008100040210A1A18460599FFF7AAFF05460E4619
:10082000009A05990498FFF793FF084305D001202B
:1008300004E02046394607B0F0BD0020C11705434B
:100840000E432C43374300990E986305401A7905EF
:10085000E40A00220C43FD0A0A3002D500200146BA
:10086000E9E70105101969410C9C0D9D00196941CA
:10087000FFF7A2FFDFE7000080B500200749012253
:10088000D306C3580B50001DC028F8D150070449A7
:10089000086001F08BFE002080BDC04600000020F3
:1008A00008ED00E0F0B581B004462C20205C012862
:1008B00001D102252EE027462C3701253D70216805
:1008C0008A68206BD2071BD1812252009043801C82
:1008D00020630125E8078A6802438A6000F06AFB0A
:1008E00006462068806800280DD500F063FB801B59
:1008F0000328F6D3216B102008430221884306E029
:100900002021084303E0206B0221884300250021B9
:1009100039702063284601B0F0BD0000F0B583B007
:100920000246002302932C20105C012802D10220F1
:1009300003B0F0BD019316462C36012030701768C5
:10094000BB685B0716D4009660C901242046A84006
:100950002F4B08399E4215D1B96A8143B9622846A6
:100960000B380128019F3846009E08D80B2D1BD05C
:100970002A481AE0116B20230B431363019F377041
:1009800003B0F0BDBB6A0343BB62906A421E072AF4
:100990002DD228460B380128019F3846009EEED8FC
:1009A0000B2D08D0A00507E01B481A490A68024031
:1009B0000A603846E3E7E00516490A6802430A6020
:1009C0000B2D3846DBD1D1480068D149FFF751FCE7
:1009D0000A2141430291029800283846CFD002985C
:1009E000401E029002980028F9D13846C7E7220736
:1009F0009042CED07A690720024089689142C8D0DF
:100A00007A6982437A610140786908437861C0E776
:100A10000110000008270140FFFF7FFFFFFFBFFF1D
:100A20000068006C7047000070B50125002850D0A8
:100A30000446006B002806D12C200021215461635C
:100A4000204600F085F8206BC0063ED420688168FF
:100A500049073AD481214900226B8A43911C2163C2
:100A60008168C9070CD1C16818229143A2680A4362
:100A7000C2600F21090702698A436168114301615D
:100A8000C168314A0A40C260616A491E4A1E9141EA
:100A90000903227E9303627E55031D43E3682669A2
:100AA0002B430B43B11E4D424D41A9001943A37E78
:100AB000012B13D1002A0ED0226B20231343236372
:100AC000626B01231343636308E0206B1021014331
:100AD0002163284670BD012212041143E269FF23FD
:100AE000C2339A4202D0236A19431143C2680A43AF
:100AF000C260A26A531E072B20D243690725AB436D
:100B000043612A40436913434361C0680F4A02406E
:100B10008A4207D100256563206B01210143022031
:100B20008143D5E7206B10210143022081432163DB
:100B3000606B012528436063284670BD01231B07B5
:100B40009A42DAD0E1E7C0461BC2FEFFE7FF3FC38F
:100B500010B586B000210591049103910291019195
:100B60000068114A904201D006B010BD0120020574
:100B70000E4BDC681443DC60DC6814400094009A7F
:100B80001A6802431A601A68024000920391032017
:100B900002904020019005200007009901A900F073
:100BA0003FF906B010BDC046002401403410024099
:100BB000F0B581B00D4604464769082F00D00C27D8
:100BC00000F0F8F902462168086838421CD001207C
:100BD0004202236B13432363CA681205920F22D18A
:100BE000627E002A1FD10A6812071CD58A68520744
:100BF00010D4224630324B680C25AB434B60FF25A6
:100C000002351368AB430CE0002D22D06E1C00921D
:100C100013D018E0226B202313432363224634327F
:100C2000636B03431360227E0020002A01D001B0D1
:100C3000F0BD0C220A6001B0F0BD2168086838429E
:100C4000C5D1002EFAD000F0B5F9009A801AA8425A
:100C5000F3D92C2000212154206B0421014321636E
:100C6000032001B0F0BD0000F0B583B00546066872
:100C7000B0680224400743D42C20285C01283FD0D0
:100C80002F462C3701223A7000240294B068C00726
:100C900024D1B0681C49084209D0286B10210143B7
:100CA0002963686B012420436863002216E00192E7
:100CB000B06801210143B160144800681449FFF78E
:100CC000D8FA02900298002807D0019A0298401E94
:100CD000029002980028F9D100E0019A002A0FD072
:100CE000286B0C49014001200002081828630020ED
:100CF00068631C2131603870B06804210143B16021
:100D0000204603B0F0BDC04615000080C80000209A
:100D100040420F00FEF0FFFFF0B581B004462C20EA
:100D2000205C012801D1022560E027462C370122F2
:100D30003A70206881680025490724D500928168AF
:100D4000490706D58168C90703D0816810220A4384
:100D5000826000F02FF9064620688068400711D5B0
:100D600000F028F9801B0328F6D3206B10210143E3
:100D70002163606B0125284360630020009A0028EE
:100D800004D131E0009A104600282DD020688168F7
:100D90000025C90720D00092816805220A40012A57
:100DA00011D181680122914381600221016000F02C
:100DB00001F9064620688068C0071AD000F0FAF8EA
:100DC000801B0328F6D3206B102101432163606B45
:100DD0000125284360630022002A05D0FF2002304D
:100DE000216B8143481C206300203870284601B0E5
:100DF000F0BD009A002AF1D1F6E70000B0B5044634
:100E000000F0D8F80546601C02D0044800680419B8
:100E100000F0D0F8401BA042FAD3B0BDCC000020B7
:100E2000F0B589B00B68002B00D1A6E00E465449FE
:100E3000884201D0022200E0012205210907002793
:100E40008842009700D00092089706973C46039688
:100E500010E029434B4A5160641C33681946E14055
:100E60000837089A921C0892069A121D06920029C9
:100E700000D182E001252946A1400B40ECD002912F
:100E80000794049705937268034637461026164365
:100E9000122E0ED11C20069A10400F268640079A6B
:100EA000D408A4001C19226AB2433E698640164346
:100EB0002662184603231A4608998A400468944318
:100EC0007F683E4601931E408E4026430660D6430F
:100ED000122F14D8BD402D4A154210D082683240DE
:100EE000039BDC68089B9C4014438460FA06D20F85
:100EF000079B9A40446802998C4314434460C1683C
:100F00003140039EB268089B9A400A43C260F900D0
:100F1000059D049F079C9FD518233B400F219940B6
:100F20002246019CA243174CA218146E8C430099D0
:100F3000994021431166144909687368DA0301D5A1
:100F4000294300E0A943079C0F4A116051689A03A6
:100F500001D5294300E0A9430B4A516009490968BA
:100F6000DA0201D5294300E0A943064A116051681D
:100F70009A0200D56DE7A9436CE709B0F0BDC04601
:100F800000040050001802408018024006000600CD
:100F900042690A4202D028228150704718228150AB
:100FA0007047002A02D018228150704728228150B1
:100FB00070470000014800687047C0468005002067
:100FC0007047704770470000F0B585B00446006870
:100FD0004768236A25462835AA78012104914902E9
:100FE00003916978402A029501D0102A0CD18269B8
:100FF0004669F1070DD155214D06AB4200D1B5E14F
:1010000049048B4208D1B1E1E26A002A37D00023BB
:1010100036E003990F4226D13946039B19404B42D3
:101020004B413507049D00D51D46002D22D0484276
:101030004841B307049B00D50346002B029D00D115
:10104000A0E0012080023840520700D549E1442247
:101050003240402A00D08BE1002800D188E12046B0
:1010600000F0B6FF91E0226A55214B049A4262D10A
:10107000012165E0216BC9B20161029D85E08369B0
:101080003A46039D2A405542554146690196B607A6
:10109000049E00D52E46002E32D0019EF3065DD46C
:1010A00001239D023B4600952B40F725294021292D
:1010B00000D0D5E0842131408029029D00D01AE182
:1010C000002B00D117E16978E28B002A5DD0A2697C
:1010D00013780361E38B5B1EE383521CA261E28BF6
:1010E000002A52D1292950D14168009A9143416088
:1010F0002120606228206870204600F0E2FB44E076
:10110000E16A002900D08369029D697828220A409B
:10111000282A28D100222A700121890245688D439E
:101120004560029D04200340594259412046FFF783
:1011300048FF019E29E0226A49068A4201D108211E
:101140002162A978402915D1E26B236BFE21194059
:10115000002A15D001221143016116E0204601F05A
:10116000E3F8029D11E0002129708E49FE314161B2
:10117000019E0AE06A78236BFE211940212AE9D1F9
:10118000016102E0204601F037F8012003021F4010
:10119000794279413205120F00D004910499002957
:1011A00000D0E3E0324603990A4081021E4201D199
:1011B00000270AE023687B4D5D61C50337461E6842
:1011C0002E43029D1E603E460746C0023140002A63
:1011D00003D02268744B5361BF1C0640002900D124
:1011E000B4E0AB78E28B6978606A202B2CD1002ABE
:1011F0002AD1F7220A40212A03D0282924D12128E4
:1012000022D16978206A0246203A531E9A41083852
:10121000431E984110424BD1282949D1644820628D
:101220000720000221684A6882434A605F4848619B
:101230000A6802400A600020606220216970A8707C
:10124000204600F069F981E02068584941613F1D5E
:10125000A97810297AD10168039A1143016075E0D9
:10126000442131404029029D57D1002B55D0697847
:10127000E28B002A89D0A26900691070E08B401EC1
:10128000E083A069401CA061E08B002800D07CE7CF
:101290002A2900D079E720684168009A914341608B
:1012A0002220606228206870204600F009FB6CE76D
:1012B0003E48212948D13E492162212161622021F5
:1012C00069700021A97007210902226853688B43C5
:1012D00053605061116801401160204600F0F1FA3E
:1012E00034E084223240802A4FD100284DD020465D
:1012F00000F0FAFE49E7514251417207049A00D5C5
:101300000A46002A00D040E7E18B002900D13CE7E3
:10131000A1690A780261481C11E0514251417207EB
:10132000049A00D50A46002A00D02EE7E18B002956
:1013300000D12AE7A16900690870A069401CA0617A
:10134000E08B401EE08320E721684861002E03D037
:101350002068184941610837002F07D0E06A3843F8
:10136000E062204600F058FD05B0F0BD05B0F0BDCC
:10137000484248417107049900D50146002900D030
:1013800003E7204600F0AAFDFFE648424841710706
:10139000049900D50146002900D0F6E6204600F069
:1013A0005FFEF2E6FFFEFFFFFFFDFFFFFFFBFFFF1B
:1013B0000000FFFFFFF7FFFFF0B583B000281BD050
:1013C0000446074628377878002804D10020387072
:1013D000204600F035FA2420787020680168012644
:1013E000B143016000F0ACFB656844498D4205D310
:1013F0004449884205D27DE001267BE0404988428D
:1014000078D3029740490190FEF733FF06463F200C
:10141000C1432768786800910840304378604B20CA
:10142000800070437D21C900FEF723FF33498D42C0
:1014300000D30646701C396A009A11400143396294
:10144000F869324E0640334885420BD80198401E59
:101450006900FEF70EFF401C2D49084004282ED8D5
:1014600004202CE0A06800900028019801D01921E8
:1014700000E003216943401E0190FEF7FAFE401C84
:10148000234908420ED0009800280DD01921694345
:101490000198FEF7EEFE401C1D490840012189031A
:1014A000401809E001200AE0032169430198FEF792
:1014B000E0FE401C164908400121C9034018304392
:1014C000F8613868C0218843216901436069084395
:1014D0003860B868FE218843E1680143B960386824
:1014E0000121014339600026E662202002994870FC
:1014F00066628E70304603B0F0BDC046A186010022
:1015000080841E0000093D0040420F000030FFFFB4
:10151000FF0F0000A08601007047704770477047BA
:1015200070470000F0B589B0049317460691054650
:1015300004462834FFF73EFD06466078202800D098
:10154000ACE001970594109807900F9802900E98C0
:101550000390286887690224274011D0FFF72AFDED
:10156000801B1A28F5D3002068622021059A51704B
:1015700090701070E86A0843E862002F00D08EE097
:10158000059B1878012800D189E001241C70286887
:101590000168C90703D1016801220A430260E10220
:1015A00002688A430260212159704021997000210C
:1015B0000091E9620299E983E98B9F4A2A6222023B
:1015C000036813430360039AAA61A983406920401A
:1015D000474247410028079B1FD0FE200699014043
:1015E00028680161A102069141698907059F46D5D6
:1015F00000980890286841690891816908910899C4
:10160000416909064ED4143023E02868406901215D
:1016100001404F424F410029DFD1581CF5D0FFF760
:10162000C9FC079B002B02D0801B9842EDD90020FB
:1016300068622021059A517090701070E86A084322
:10164000E862F807C9D02AE0286841691430090621
:1016500028D40168069A114200D0C8E0581CF3D083
:10166000FFF7A8FC079B2021002B00D1C2E0801BC4
:101670009842E9D9BEE0286841698907B8D4416930
:10168000069A114251D1581CF5D0FFF793FC079BE5
:10169000002B40D0801B9842EDD93CE0022420462C
:1016A00009B0F0BD2868049901291FD00199090AE1
:1016B00001614169090618D4143004E028684169C1
:1016C0001430090611D40168069A114200D09BE03B
:1016D000581CF3D0FFF76EFC079B2021002B00D194
:1016E00095E0801B9842E9D991E028680199C9B238
:1016F000016128684169090629D44169069A1142A5
:1017000013D1581CF5D0FFF755FC079B002B02D0D6
:10171000801B9842EDD90020686220217970B87052
:101720003870E86A0843E862B9E701246102026898
:101730000A430260414941610020686220217970BA
:10174000B8703870E86A04210143E962A7E7A88B02
:10175000002839D028684169090616D4143004E0FD
:1017600028684169143009060FD40168069A1142AD
:101770004AD1581CF4D0FFF71DFC079B2021002BF9
:1017800045D0801B9842EBD941E02968A8690278CE
:101790000A61EA8B521EEA83421CAA61AA8B531E7D
:1017A000AB834F697F070AD51B0408D043780B61D0
:1017B000911EA983801CA861E88B401EE883A88B3A
:1017C0000028059F079BC5D128461946324600F0E0
:1017D00019FE002824D10120400229680A6802432A
:1017E0000A6020207870009C3C70BC7057E7134959
:1017F000016004210020686220227A70B870EA6AD1
:101800000A43EA6238700BE00C4901600421009A37
:101810006A6220207870BA70E86A0843E8623A7019
:10182000E86A042800D03AE70124600229680A68BF
:1018300002430A6033E7C0460000FFFFFFFBFFFFE3
:1018400070B586B000240594049403940294019426
:101850001A4D69690120014369616969014000917C
:101860000099460529693143296129693140009170
:101870000099A9680143A960A968014000910099F5
:101880000C210591032204920390122002900191F1
:101890000520000701A9FFF7C3FA28683043286034
:1018A0002868B0432860172528462146224600F0C4
:1018B00061F8284600F054F806B070BD2C100240C4
:1018C000704770471A48006802490A681018086093
:1018D0007047C0468005002080B5032000F008F85E
:1018E000002801D0012080BD00F024F8002080BD38
:1018F000B0B505460E4801680124002916D07D20A8
:10190000C000FEF7B6FC014694480068FEF7B1FC43
:1019100000F05EFA032D09D8002807D10024E04327
:101920002946224600F026F8844805602046B0BDCE
:10193000CC00002082B00948416801221143416077
:101940004168114001910199110702680A43026040
:10195000006808400090009802B070473C100240B8
:101960001F21014001208840014908607047C0469E
:1019700000E100E0002805D4032203469343094A0E
:101980009A1803E00C220240074BD2188007C00EC1
:101990008901C9B28140FF238340106898430843FE
:1019A0001060704700E400E014ED00E0F0B583B093
:1019B00000284BD00D4602905E480068012101913D
:1019C0000840A84214D25B4908680126B043284366
:1019D0000860594CFFF7EEFA074656480068304059
:1019E000A84205D0FFF7E6FAC01BA042F5D951E0A6
:1019F000029B186881075A4C0DD5410704D5072171
:101A0000090322680A4322600F21090222688A43DF
:101A1000996811432160C0071BD1264645480168DB
:101A200001200140A94238D9424A1168814311601E
:101A3000414CFFF7BFFA05463E480068C0072CD06E
:101A4000FFF7B8FA401BA042F6D923E0012003B00B
:101A5000F0BD5B68002B37D0012B3CD12146083903
:101A60000968890301983AD52168072291431943EF
:101A70002160314FFFF79EFA064620683821014069
:101A800002984068C0008142C7D0FFF793FA801BDC
:101A9000B842F2D9032003B0F0BD029A1078400793
:101AA000334606D50720000319688143D0680843F0
:101AB000186018688006400F13D01968382001405C
:101AC00008291FD1BD4823E0214608390968490586
:101AD0000198C9D403E0A16D89070198C4D403B06B
:101AE000F0BD184608380168181F00680004400F50
:101AF000042800D900208000B14A10588904490FF9
:101B0000C84005E019680140183948424841C003FF
:101B1000196889093C220A40AA4989581F220A40AB
:101B2000D040A9490860A9480068FFF7E1FE03B06A
:101B3000F0BDC0460020024088130000D000002005
:101B4000A148006806490968890A1C220A4005491B
:101B500089581F220A40D0407047C046C800002064
:101B600008100240AC370008F0B583B0012500280A
:101B700000D1A6E0019502900078C0078E4F4DD0AD
:101B8000B86838210140082907D13868800345D555
:101B900002984068002841D11CE002984568002D59
:101BA00007D08068002815D039690C229143014381
:101BB00039610520000485420ED0012001048D42C8
:101BC00010D0C549491E3A680A403A608104386815
:101BD000884309E0019D74E0012081043A680A43CA
:101BE0003A600104386808433860FFF7E3F90646B5
:101BF00001204404002D0ED0386820420ED1FFF79A
:101C0000D9F9801BC828F7D95AE0FFF7D3F9801B10
:101C10000325C82855D838682042F6D102980078A4
:101C2000800712D40298007800070CD5B8683821D4
:101C30000140182948D1386E800704D50298806980
:101C40000028019D3DD000253BE0B8688006400F8C
:101C50001CD03868029EF16800294AD00721C902C9
:101C60008843316901433960012001023A680A431F
:101C70003A608402FFF79EF90546386820424AD14F
:101C8000FFF798F9401B0228F7D919E001253868B9
:101C90004005029A02D5D068002812D0AC027868BC
:101CA0008D490140506908437860FFF783F9064683
:101CB0003868204236D1FFF77DF9801B0228F7D91A
:101CC0000325284603B0F0BD386E029989690029C2
:101CD0003BD0012108433866FFF76CF90446386EA3
:101CE0008007B0D4FFF766F9001B03250228F6D958
:101CF000E7E701210A02904338608C02FFF75AF9A6
:101D00000646386820428DD0FFF754F9801B032522
:101D10000228F6D9D5E77868F2490140706908438E
:101D200078607FE70720C002396881430298006924
:101D300008433860B8688006400F17D0B96838206B
:101D40000140082920D11D4824E00121884338663C
:101D5000FFF730F90446386E800700D473E7FFF7C9
:101D600029F9001B03250228F5D9AAE73968786804
:101D70000004400F042800D900208000104A1058A9
:101D80008904490FC84005E0B96801401839484244
:101D90004841C003B96889093C220A400949895869
:101DA0001F220A40D0400849086008480068FFF731
:101DB0009FFD002885D135E70010024000366E01F6
:101DC000583700086C370008C8000020D0000020F9
:101DD000401E010E01D0012070470749074A50609C
:101DE000074803680B400321890759180160002048
:101DF0009060072111607047FFFFFF0010E000E0D6
:101E000020ED00E0FEE7000080B50248FFF7DCF8B7
:101E100080BDC0462C050020B0B504462920205CBA
:101E2000254629356978102907D1222805D10121B5
:101E3000C902226813688B431360282102460A40B6
:101E4000282A03D100206062297006E0602801D0B2
:101E5000202028700020606268702878602816D1E1
:101E6000202028700020E06220684169490605D5DD
:101E7000A16900690870A069401CA0612068016820
:101E80000122914301602046FFF79AF80CE0206898
:101E90004169490605D5A16900690870A069401C1F
:101EA000A0612046FFF78EF82878E16A490711D52E
:101EB00028280FD10720000221684A6882434A601F
:101EC000CC48206200206062202129706870204682
:101ED000FFF722FBB0BDC0460000FFFF10B5026A4D
:101EE000C18B042909D101218902026853688B43FF
:101EF0005360816912690A7011E0C18B032915D101
:101F000001684C68314B1C404C60022A04D0042A02
:101F100002D00A681A400A608269096911708169F1
:101F2000491C8161C18B491EC18310BDC18B02292F
:101F300016D101462931521E0F2A17D87A44127938
:101F40005200974407101310131313131313131392
:101F5000131313070122920203681C6894430AE0DA
:101F600081690268C6E70122920201E00122520261
:101F700003681C6814431C60826903681B69137042
:101F8000C28B521EC2838269531C836103681B6922
:101F90005370C28B521EC2830322120203685C6814
:101FA00094435C6020220A708269521C82614B78E3
:101FB00000224A70402B03D14262FFF7B0FA10BDF5
:101FC00012214162FFF7A9FA10BDC046FFFBFFFFD7
:101FD00010B52921415C222940D1C18B042913D39A
:101FE0008169026812690A70C18B491EC1838169C7
:101FF000491C8161C18B032930D10121890200680C
:1020000042688A43426010BD026A012926D8022A2A
:1020100024D0014629310122920203681C689443AE
:102020001C60072212025C6894435C6082691B6931
:102030001370C28B521EC28320220A708269521C06
:1020400082614B7800224A70402B03D14262FFF735
:1020500066FA10BD12214162FFF75FFA10BD000061
:1020600010B5026A2921415C21292AD1C18B00299E
:1020700009D00168826913780B61511C8161C18BA1
:10208000491EC18310BD01462931DD4B9A4203D060
:10209000082A01D0202A15D10722120203685C68A1
:1020A00094435C60012252021C6814431C600022AD
:1020B000426220230B704B784A70402B0ED1FFF701
:1020C0002FFA10BD0722120203685C6894435C601B
:1020D0001122426200224A7020220A70FFF71EFA83
:1020E00010BDC0460000FFFFB0B52921425C01468B
:1020F00029314C78036A858B002D1DD1212A1BD1F3
:102100003B4ABF4CA34203D0082B01D0202B34D133
:1021100003685C6814405C60012252021C6814432E
:102120001C600022426220230B704B784A70402BC7
:1021300019D1FFF7F5F9B0BD212A03D0402C55D1B4
:10214000222A53D1C28B002A10D04A78402A44D187
:10215000C26B002A1ED0C26B012A26D10168426BD5
:10216000D2B20A6132E0FFF7D9F9B0BD012189028C
:10217000006842688A434260B0BD03685C681440EE
:102180005C601122426200224A7020220A70FFF72E
:10219000C5F9B0BD826B416B012A13D10268C9B287
:1021A0001161C16B891CC163B0BDC26B022A1DD114
:1021B0000A78222A0ED101210902006802680A4326
:1021C0000260B0BD0268090AC9B21161C16B491C45
:1021D000C163B0BD0978212908D1016882691378EB
:1021E0000B61511C8161C18B491EC183B0BDC046CA
:1021F000FFF8FFFF0000FFFF10B581B00146293155
:102200004B78016A426A2924045D222C04D1C46BF4
:10221000002C0BD1402B09D10021009100684169AD
:10222000009180690090009801B010BDC38B002B15
:102230001FD0C38B012B2AD1202908D0082906D012
:10224000D64B994203D0122A3FD101293DD001211A
:102250008A0203681C6894431C60002200925A6939
:1022600000929A690092009A49021A680A431A6019
:1022700027E00021009101684A6900928A69009272
:10228000009A012252020B6813430B6019E0C28BC3
:10229000022A09D1102925D8012213468B40214951
:1022A0000B421FD0910201E00121890202681368EC
:1022B0000B431360002100915169009191690091D5
:1022C00000990021C16301B010BD10291CD8012262
:1022D00013468B4013490B4216D0910202681368D3
:1022E0000B4316E00121CA0203681C6814431C60FA
:1022F000002200925A6900929A690092009A89021B
:102300001A688A431A60DCE70121890202681368AF
:102310008B4313600021009101684A69009289692A
:10232000CDE7C04614000100F0B581B00446292075
:10233000265C07200102206842688A43426000252B
:1023400000954169009101680122114301600099E3
:10235000910202688A430260E18B00291FD0416923
:10236000490708D5A16900690870A069401CA061EF
:10237000E08B401EE08320684169490608D5A169C9
:1023800000690870A069401CA061E08B401EE083DA
:10239000E08B002803D0E06A04210143E162E06A97
:1023A000002804D02046FFF737FD01B0F0BD2746D6
:1023B00029372A2E05D16562282038702046FFF77C
:1023C0007FFA387828280AD1744820626562202074
:1023D00038707D702046FFF79FF801B0F0BD606A4D
:1023E000222803D0222E01D001B0F0BD656220204A
:1023F00038707D702046FFF763FA01B0F0BDC0462B
:102400000000FFFFF0B581B016460F460446026893
:1024100051690020490718D4009025462835143208
:1024200004E022685169143249070DD41168490546
:102430000DD4781CF5D0FEF7BDFD2021002F09D06A
:10244000801BB842EDD905E0009801B0F0BD074906
:10245000116004210020606220226A70A870287038
:10246000E06A0843E062012001B0F0BDFFFBFFFF1E
:1024700070477047704780B5FFF724FA80BD0000B1
:10248000B0B58CB000240B940A9409940894079476
:102490000694059404940394029401940725680318
:1024A0003D490A6882430120C303D2180A60000232
:1024B00008900220059005A8FFF756FB00280DD0D4
:1024C000CE4C012100222046FEF76BFD0121204663
:1024D000FEF75EFD3220FEF791FCF7E704940394CB
:1024E0000294019501A82146FFF760FA00280DD05B
:1024F000C24C012100222046FEF753FD0121204657
:10250000FEF746FD3220FEF779FCF7E700F002F80F
:102510000CB0B0BD1248026838211140082904D01F
:10252000182904D10121C9030EE00E490CE0011F56
:102530000968C90A1C220A400B4989580246083A10
:1025400012689204520FD140084A11600068800955
:102550003C2303400648C058C14011607047C04644
:102560000810024000366E01383F0008C800002005
:102570006C37000808480168084A0A400849096899
:10258000084B19405118C918491C01600120C006A8
:10259000054908607047C046041002400000FFFF74
:1025A000040FFF1FFF1F000008ED00E088B0FFF7D9
:1025B00093F9FFF765FF00260796069605960496A1
:1025C00003968D48016802221143016000681040A3
:1025D00002900298894C0125204629462A46FEF79A
:1025E000E0FC069605960495039503A92046FEF7A0
:1025F00017FC204629462A46FEF7D3FC804881492D
:10260000814A026041608660C66006614661FEF7ED
:10261000D3FE00280CD0012100222046FEF7C1FC89
:1026200001212046FEF7B4FC3220FEF7E7FBF7E776
:1026300076480721867606830422754BFF27C2372A
:10264000C761066246628162690703604160866015
:10265000C66006614261059604960396FEF7E4F9AA
:1026600000280CD0012100222046FEF79AFC01210F
:102670002046FEF78DFC3220FEF7C0FBF7E76348EB
:10268000FEF710F900280CD0012100222046FEF7A9
:1026900088FC01212046FEF77BFC3220FEF7AEFBD2
:1026A000F7E70620039028030490584803A9FEF793
:1026B00035F9012100280BD000222046FEF771FCDD
:1026C00001212046FEF764FC3220FEF797FBF7E776
:1026D000002520462A46FEF764FC494800F0C6F86B
:1026E000002807D001212046FEF752FC6420FEF7A7
:1026F00085FBF7E7012120460A46FEF752FCC82079
:10270000424E01953AE00020287400F0A3F802261A
:102710003046314600F094FA474806C80838054666
:10272000012746A03B4600F061FB0F21304600F038
:1027300087FA06CD39483B4600F058FB1E25304647
:10274000294600F07DFA3C4806C8083806463FA0F6
:102750003B4600F04BFB2020294600F071FA06CEE4
:1027600033483B4600F042FB254800F06FFA204614
:102770003946FEF70DFCFA20019D244EFEF73EFB84
:102780003046FEF771FA64213046FEF711FA002850
:1027900003D13046FEF744F905463046FEF7BCFA51
:1027A0002846FDF732FD1B49FDF7F1FC06461A49A4
:1027B000FDF7B0FCFDF749FD02460B46174818A18E
:1027C00000F034FB1A4D1B4828606860A860E86080
:1027D0008320C1053046FDF79DFCFDF71DFD014638
:1027E000C0178143102900D3102100298BD03D222E
:1027F0002846FDF77DFC86E73410024000040050B7
:102800002C050020A086010000540040F4040020A4
:102810000024014000F07F45000096436C05002035
:102820005041363A20252E31666B50610000000081
:10283000E004002020202020C0000020416C7068AF
:102840006158206247617567650000004C564C3A3C
:102850000000000080B5002801D1024600E0FF2200
:1028600001208102F548FDF743FC80BDF0B5A3B01F
:1028700007466420FEF7C2FA22A8AE2101700A21A1
:1028800001260090019602910C461E9178210022AB
:10289000209238460D463346FEF744FE1D9022A88E
:1028A00020211991017000900196029438463C460F
:1028B0002F461F952946209D2A463346FEF732FEB5
:1028C0001C9022A8102116910170009001961E986C
:1028D0000290204639462A463346FEF723FE1B90D7
:1028E00022A8B0210170009001961E9D02952194AE
:1028F00020463946209A3346FEF714FE1A9022A845
:10290000C821017000900196029520463946209D0D
:102910002A463346FEF706FE189022A805702A467E
:10292000009001961E9C0294219F38461F9D2946C7
:102930003346FEF7F7FD179022A816990170009014
:102940000196029438462946209D2A463346FEF7D2
:10295000E9FD169022A84021017000900196029492
:1029600038461F9F39462A462C463346FEF7DAFD85
:10297000159022A881210170009001961E98029066
:10298000219839463D4622463346FEF7CBFD14904A
:1029900022A8FF210170009001961E9C0294219FA5
:1029A00038462946209D2A463346FEF7BBFD139044
:1029B00022A8A121017000900196029438461F9F21
:1029C00039462A463346FEF7ADFD129022A8A621CD
:1029D0000170009001960294219839463C462A469F
:1029E0003346FEF79FFD119022A8A82101700090A8
:1029F00001961E980290219F384621462A4633466A
:102A0000FEF790FD109022A83F21017000900196E2
:102A10001E9C029438461F9F39462A463346FEF7CD
:102A200081FD0F9022A8A4210170009001960294CC
:102A3000219839462A463346FEF774FD0E9022A8A7
:102A4000D3210170009001960294219F38461F996E
:102A50002A463346FEF766FD0D9022A82A460570E9
:102A600000900196029438463D461F9F39463346F2
:102A7000FEF758FD0C9022A8D52101700090019618
:102A80000294284639463D46209A3346FEF74AFDD1
:102A90000B9022A8F0210170009001960294219FD2
:102AA00038462946209D2A463346FEF73BFD0A90CC
:102AB00022A8D921017000900196029438461F9FE8
:102AC00039462A463346FEF72DFD099022A82221D9
:102AD0000170009001960294219839462A463346A7
:102AE000FEF720FD089022A8DA21017000900196DF
:102AF0000294219F38461F9C21462A463346FEF702
:102B000011FD079022A812210170009001961E98D5
:102B100002903846274621462A463346FEF702FDF4
:102B2000069022A8DB210170009001961E9C029461
:102B3000219839463D46209A3346FEF7F3FC05902E
:102B400022A819990170009001960294219F38469D
:102B50002946209A3346FEF7E5FC199022A88D21DC
:102B60000170009001962546029438463C461F9F0E
:102B70003946209A3346FEF7D5FC049022A814214A
:102B800001700090019602952046209C394622460D
:102B90003346FEF7C7FC22A9AF220A7000910196C6
:102BA00002951D991C9A51181B9A89181A9A89180E
:102BB000189A8918179A8918169A8918159A8918CF
:102BC000149A8918139A8918129A8918119A8918CF
:102BD000109A89180F9A89180E9A89180D9A8918CF
:102BE0000C9A89180B9A89180A9A8918099A8918CF
:102BF000089A8918079A8918069A8918059A8918CF
:102C0000199A8918049A89180F1821981F9925462E
:102C100022463346FEF786FCC7420CD101208102D2
:102C20007148FDF76CFA219800F010F86C482E46B8
:102C300005806A480580304623B0F0BDE0000020E2
:102C4000674A1180654908807047C046F0B58BB06F
:102C500007900025644F039505972846503808A92A
:102C600008700A20069001260091019602907821B2
:102C70000491079C2046039F3A463346FEF752FCD8
:102C800009A8077000900196069802902046049CBF
:102C900021463A463346FEF745FC0AA8102101704A
:102CA0000090019606980290079821463A46059FA3
:102CB0003346FEF737FC6420802100970191029093
:102CC0004022079821463346FEF72CFC80376D1CC6
:102CD000082DC1D10BB0F0BDF0B590B03F4C2788A6
:102CE000CDB2EE1900247F2E75D80E9301963C4E7E
:102CF0003688090ACBB299193F296CD804960592F7
:102D00000090002B63D00E9948424841354909781C
:102D10004A1E0C46944144400894484248410D9054
:102D200000982038584303901F20C00102900020D3
:102D300007900A970995069305E00798401C069BA3
:102D40000790984243D0002DF7D00398079A1018A7
:102D5000400005990C5A04981018020102990A4083
:102D60000F920722024001219140FF220C914A401C
:102D70000B92C2B200230AE00F9940181A4E315C40
:102D80000B9D2940099D31545B1C9D42D5D0F818FC
:102D900080260640C0B221469940090408D53F2A42
:102DA000F2D8002EF0D10E990D9E8E42E4D106E0AD
:102DB0003F2AE9D8002EE7D108990029DCD00F99E5
:102DC0004018094E315C0C9F39430A9FDBE70348EA
:102DD00001990180009C204610B0F0BDD800002071
:102DE000DA000020DC000020E0000020F0B581B017
:102DF0000E46074600780021002813D01C461546D1
:102E00000091C0B231462A462346FFF765FF0146CE
:102E10003878814207D178787F1C0028F1D100985A
:102E200001B0F0BD084601B0F0BD00000FB410B510
:102E300004A9074B02AA039800F0ECF8044602A983
:102E4000002000F083FC204610BC08BC04B01847EA
:102E50004D3700082021020C01D010211046020A33
:102E600001D010460839020901D01046091F820816
:102E700001D01046891E420801D0881E7047081AEA
:102E8000704702E008C8121F08C1002AFAD1704733
:102E90007047002001E001C1121F002AFBD17047DA
:102EA000F0B51FB486B00998089A030D00210243BB
:102EB00014D05148514A181850430514119801284C
:102EC00010981AD0281A401C00264D4F4D490096E4
:102ED00001910490002812DA444211E01198012473
:102EE00049A3012801D11098C1430698119A846022
:102EF0000360C26041600BB0F0BD4042E4E70446AD
:102F0000210500203F4A001C51410391029012E02C
:102F1000E00707D032463B4601990098FDF7ECFAEE
:102F20000191009032463B4610461946FDF7E4FAFF
:102F300006460F466410002CEAD10498039B002833
:102F4000029A0999089806DAFDF7D6FA019B009AC9
:102F5000FDF7D2FA05E0FDF737FB019B009AFDF77C
:102F600033FB04460E460022284BFDF7C5FB03D871
:102F70000020C043014607E00022254B2046314691
:102F8000FDF708FAFDF798FB102409E0002C0ADB96
:102F90000A220023FDF78CF9079B30321A55641E74
:102FA00002460A43F2D11122641C079B121B1C1912
:102FB000119B012B03D0012308430ED10AE00843E3
:102FC00004D0112010900020119077E71098151A66
:102FD0006D1E0BE01098824202DD00236D1C03E0A1
:102FE000824201DA00236D1E002BEED00698119963
:102FF0008260C16030C07EE701FCFFFF104D000021
:10300000000014400000F03F300000000000F043DA
:103010000000E03FFFB597B00646002518E22528DE
:1030200077D100242746FD49049400E00443761C30
:1030300032780120203A90400842F7D130782A288F
:103040000ED00222307801463039092916D8049969
:103050000A235943303940181443761C0490F1E791
:10306000189802C804911890002904DA012040033E
:1030700004434842049002200443761C30782E28F2
:1030800014D1042004437078761C2A2809D118989A
:10309000761C80C8189009E00A214F43303FC719B9
:1030A000761C3078014630390929F5D930786C28FA
:1030B00010D006DC4C281AD068280ED06A2817D108
:1030C00004E0742813D07A2812D110E001204005C2
:1030D00004430CE00121090501E0032109050C432B
:1030E0007178814203D1012000052418761C761CDA
:1030F0003078119066280BD013DC58287DD009DC7D
:1031000000287BD04528F6D04628F4D047281AD18D
:10311000A5E118E0632835D0642870D0652812D165
:103120009DE170286CD008DC6728F1D069287BD03D
:103130006E280DD06F2806D1BAE073282ED07528DE
:1031400071D0782859D01A9A199990476D1C7EE150
:103150006002400F022809D003280DD004281898D7
:1031600001680DD00D60001D189070E11898EA17E5
:1031700001680D604A60F6E7189801680D80F2E773
:103180000D70F0E718986A4601781172001D1890CA
:103190000020507202A80090012005E0189802C893
:1031A000189000200091C04361070DD5002101E077
:1031B0000199491C0191B94212DA8142F8DB009A67
:1031C000515C0029F4D10BE0002101E00199491C78
:1031D00001918142FADB019A0099895C0029F5D1BD
:1031E000019904981A9B471A21463846199A00F00B
:1031F00097FA0199401945180BE04FE02CE113E0D4
:103200004EE0009800990078491C00911A9A19998B
:1032100090470198401E0190401CF2D1214638464B
:103220001A9B199A10E137E00A20002100900191C1
:103230006002410F022907D0189A01CA1892C217DA
:103240009446032908D00AE01898C01DC108C90097
:1032500005C91891944607E000B2C21794460429A4
:1032600002D140B2C1178C4600226146944506DA6D
:103270000A460021404291418C462D2102E0210561
:1032800004D52B216A461173012103E0E10701D027
:103290002021F7E7029155E00A200AE0102008E01B
:1032A000102000900021042004430191082703E02E
:1032B00008200021019100906002410F022907D0EF
:1032C000189A01CA189200229446032908D008E0EF
:1032D0001898C01DC108C90005C91891944603E09B
:1032E00080B2042900D1C0B200210291210729D562
:1032F0001199702906D0009A1021019B4A401A4367
:1033000005D00EE040216A461173012108E06146B4
:10331000014306D030216A4611731199517302217D
:103320000291009A0821019B4A401A430AD1614642
:10333000014301D1610705D530216A46117301218E
:103340007F1E02911199582904D035A10E910DA923
:103350000D910DE037A1F9E76146019B009AFCF75A
:10336000A7FF0E9B8C469B5C0D9A521E0D9213700C
:1033700061460143F0D10D9805A9081A203001904B
:10338000600703D501200004844300E00127019871
:10339000874201DD381A00E00020019900904118B1
:1033A000029809180498401A0490E00306D42146B4
:1033B0001A9B199A049800F0B3F94519002706E002
:1033C00003A81A9AC05D199990476D1C7F1C02983A
:1033D0008742F5DBE0030CD521461A9B199A049825
:1033E00000F09EF9451904E01A9A30201999904787
:1033F0006D1C0099481E00900029F5DC08E00D982E
:103400000D990078491C0D911A9A199990476D1CD5
:103410000199481E01900029F1DC63E109280100AF
:10342000303132333435363738396162636465663A
:1034300000000000303132333435363738394142FC
:10344000434445460000000000F05AF94519761C37
:103450003078002800D0E2E528461BB0F0BD6007B8
:1034600000D406271898C01DC108C90048680A681A
:103470000831C30FDB071891190001D09CA108E0A7
:10348000210501D59BA104E0E10701D09AA100E04C
:103490009AA1430011985B08109165280CD006DCB6
:1034A000452809D046281DD0472841D141E066284B
:1034B00018D067283CD13CE00021112F01DB1120FE
:1034C00000E0781C0191009008A911A8FFF7E8FC22
:1034D000139905910021119A15927F1C129801975A
:1034E000009150E00120C00703900120019008A93D
:1034F000009711A8FFF7D4FC139A149905920022A3
:10350000119B009212981593059A0192002901D0FF
:10351000104602E0791C40180190381A01D5019834
:1035200004E04042401E0090781C0190C01B0290B5
:1035300043E0012F00DA01270021112F01DD1120C6
:1035400000E038460191009008A911A8FFF7A8FCF7
:1035500013990591119A00211298159200910197E3
:1035600021070CD40599B94201DB019900E00191D2
:10357000012904DD159A491E515C302906D0B84254
:1035800001DA011D05DA0121029115E00199491EB8
:10359000EDE7002805DC0099411800910199091A0E
:1035A00003E0019A411C914200DD01910099401A0B
:1035B000401C02900120C0070390200706D4029906
:1035C0000198814202DB0020C0430290002069463E
:1035D000C87707AF012103980337C907884224D071
:1035E000022011902B201290039800280CDA404200
:1035F00003902D20129007E00A210398FCF739FE72
:1036000030317F1E039039701199481E11900029A6
:10361000F2DC03980028EFD1791E129808703078F8
:10362000202108404530BF1E387006A8C01BC01DB1
:10363000039010980078002800D0012001994118CB
:103640000298C0170918039809180498401A401ED8
:103650000490E00306D421461A9B199A049800F0BE
:103660005FF8451910980078002803D01A9A199924
:1036700090476D1CE00324D521461A9B199A0498A3
:1036800000F04EF845191CE00098002807DB00996F
:103690000598884203DD1598405C199901E0199955
:1036A00030201A9A904700986D1C401C0090029898
:1036B000401E0290002804D11A9A2E201999904792
:1036C0006D1C0199481E01900029DDDC05E0387869
:1036D0001A9A7F1C199990476D1C0399481E0390F4
:1036E0000029F4DC21461A9B199A0498ACE60000E4
:1036F0002D0000002B000000200000000000000052
:10370000F8B5044600251E461746880404D405E093
:1037100039462020B0476D1C641EF9D52846F8BDF7
:10372000FFB50446002581B01E46C80301D53027E9
:1037300000E02027880404D505E038460399B04707
:103740006D1C641EF9D5284605B0F0BD0A68531CEF
:103750000B6010707047000000093D0000127A00F5
:103760000024F4004086510100366E010000000084
:103770000000000000000000000000000000000049
:103780000000000000000000000000000100000038
:10379000020000000300000004000000060000001A
:1037A0000700000008000000090000000000000001
:1037B0000000000000000000000000000100000008
:1037C00002000000030000000400000000000000F0
:1037D00000000000000000000000000000000000E9
:1037E0000010001000100010001000100000001069
:1037F0000000000000280028002800000000000051
:10380000000000000000000000240024007C0024D0
:103810000048007C004800480000000000380054C8
:10382000005000380014005400540038001000000C
:1038300000200054005800300028005400140008F4
:10384000000000000010002800280010003400488C
:1038500000480034000000000010001000100000BC
:103860000000000000000000000000000008001040
:103870000020002000200020002000200010000870
:1038800000200010000800080008000800080008D8
:103890000010002000100038001000280000000078
:1038A00000000000000000000000000000100010F8
:1038B000007C00100010000000000000000000006C
:1038C00000000000000000000000001000100010C8
:1038D00000000000000000000000003800000000B0
:1038E00000000000000000000000000000000000D8
:1038F0000000001000000000000800080010001088
:1039000000100010002000200000000000380044DB
:10391000004400540044004400440038000000000B
:1039200000100030005000100010001000100010B7
:1039300000000000003800440044000400080010AB
:103940000020007C00000000003800440004001843
:1039500000040004004400380000000000080018C3
:10396000002800280048007C000800080000000033
:10397000007C00400040007800040004004400384F
:10398000000000000038004400400078004400447B
:103990000044003800000000007C00040008001013
:1039A000001000200020002000000000003800442B
:1039B0000044003800440044004400380000000087
:1039C0000038004400440044003C00040044003837
:1039D00000000000000000000010000000000000D7
:1039E00000000010000000000000000000000010B7
:1039F0000000000000000010001000100000000097
:103A0000000C003000400030000C000000000000FE
:103A1000000000000000007C0000007C00000000AE
:103A20000000000000000000006000180004001802
:103A3000006000000000000000380044000400089E
:103A400000100010000000100000000000380044CA
:103A5000004C0054005C00400040003800000000B2
:103A600000100028002800280028007C00440044A2
:103A70000000000000780044004400780044004446
:103A8000004400780000000000380044004000407E
:103A90000040004000440038000000000070004872
:103AA000004400440044004400480070000000004E
:103AB000007C00400040007C004000400040007C52
:103AC00000000000007C0040004000780040004002
:103AD000004000400000000000380044004000406A
:103AE000005C004400440038000000000044004432
:103AF0000044007C004400440044004400000000F6
:103B000000380010001000100010001000100038E5
:103B1000000000000004000400040004000400048D
:103B200000440038000000000044004800500060DD
:103B300000500048004800440000000000400040E1
:103B400000400040004000400040007C00000000B9
:103B50000044006C006C00540044004400440044E5
:103B60000000000000440064006400540054004C55
:103B7000004C0044000000000038004400440044B1
:103B80000044004400440038000000000078004475
:103B90000044004400780040004000400000000065
:103BA00000380044004400440044004400540038FD
:103BB00000040000007800440044004400780048FD
:103BC000004800440000000000380044004000307D
:103BD000000800040044003800000000007C0010D1
:103BE0000010001000100010001000100000000075
:103BF00000440044004400440044004400440038B1
:103C00000000000000440044004400280028002870
:103C10000010001000000000004400440054005454
:103C20000054006C00280028000000000044002818
:103C300000280010001000280028004400000000A8
:103C4000004400440028002800100010001000105C
:103C500000000000007C000400080010001000209C
:103C60000040007C00000000001800100010001050
:103C7000001000100010001000100018002000209C
:103C800000100010001000100008000800000000E4
:103C90000030001000100010001000100010001084
:103CA0000010003000100028002800440000000030
:103CB0000000000000000000000000000000000004
:103CC0000000000000000000000000FE00200010C6
:103CD00000000000000000000000000000000000E4
:103CE0000000000000380044003C0044004C003458
:103CF0000000000000400040005800640044004400
:103D0000006400580000000000000000003800447B
:103D1000004000400044003800000000000400049F
:103D20000034004C00440044004C0034000000000B
:103D30000000000000380044007C004000440038CF
:103D400000000000000C0010007C001000100010AB
:103D50000010001000000000000000000034004CC3
:103D600000440044004C003400040078004000404F
:103D70000058006400440044004400440000000077
:103D80000010000000700010001000100010001063
:103D90000000000000100000007000100010001073
:103DA00000100010001000E00040004000480050EB
:103DB0000060005000480044000000000070001047
:103DC0000010001000100010001000100000000093
:103DD00000000000007800540054005400540054C7
:103DE000000000000000000000580064004400448F
:103DF00000440044000000000000000000380044BF
:103E000000440044004400380000000000000000AE
:103E10000058006400440044006400580040004022
:103E2000000000000034004C00440044004C00340A
:103E3000000400040000000000580064004000403E
:103E40000040004000000000000000000038004476
:103E5000003000080044003800000000002000206E
:103E60000078002000200020002000180000000042
:103E7000000000000044004400440044004C0034B2
:103E8000000000000000000000440044002800285A
:103E90000028001000000000000000000054005442
:103EA0000054006C00280028000000000000000002
:103EB000004400280010001000280044000000000A
:103EC00000000000004400440028002800100010FA
:103ED0000010006000000000007C000800100020BE
:103EE0000040007C000000000018001000100010CE
:103EF000002000200010001000100018001000101A
:103F00000010001000100010001000100010001031
:103F10000030001000100010000800080010001011
:103F2000001000300000000000000074004C000091
:103F3000000000000000000000093D0000127A00AF
:103F40000024F4004086510100366E0100093D0056
:103F500000093D0000093D00783F000800000020F6
:103F6000D8000000822E000850400008D800002031
:103F7000B0080000922E00080000000000000000C1
:103F80000000000000000000000000000000000031
:103F90000000000000000000000000000000000021
:103FA0000000000000000000000000000000000011
:103FB0000000000000000000000000000000000001
:103FC00000000000000000000000000000000000F1
:103FD00000000000000000000000000000000000E1
:103FE00000000000000000000000000000000000D1
:103FF00000000000000000000000000000000000C1
:1040000000000000000000000000000000000000B0
:1040100000000000000000000000000000000000A0
:104020000000000000000000000000000000000090
:104030000000000000000000070A0000CC37000864
:1040400000127A00010000000400000000000000DF
:04000005080000C12E
:00000001FF
