:020000040800F2
:10000000A0090020D5000008B5240008811B0008C5
:1000100000000000000000000000000000000000E0
:10002000000000000000000000000000B9240008EB
:100030000000000000000000B7240008BB240008F6
:10004000000000000000000000000000E7000008C1
:10005000E7000008B9090008E7000008E700000809
:100060000000000000000000000000000000000090
:10007000E7000008E7000008E700000800000000B3
:1000800000000000E7000008000000000000000081
:1000900000000000E700000800000000851B0008C9
:1000A00000000000E700000800000000E700000872
:1000B0000000000000000000000000000000000040
:1000C0000348854600F02CFB0048004779080008EB
:1000D000A00900200448804704480047FEE7FEE7E7
:1000E000FEE7FEE7FEE7FEE771250008C100000815
:1000F000D2B201E00270401C491EFBD270470022C0
:10010000F6E710B513460A4604461946FFF7F0FF16
:10011000204610BD024670B54A40D30FDB074000B1
:100120002DD04A002AD0010E140E00021202091925
:10013000400A520A8418E50104465443000A120A90
:100140002E045043A4194219200CC543AA18120CBE
:100150000125AD03521C521912047F39240400D02A
:10016000521C104301D44000491EC2B20C06C00903
:100170002018401C4008802A02D003E0002070BDF7
:1001800040084000002900DA0020184370BD70B517
:1001900002464A40D50F40004A00ED074008520889
:1001A000002814D0002A12D0C40DD30D4102012022
:1001B000C0055202490A520AE41A091812187D347D
:1001C000914201D3641C00E04900002C01DA0020B8
:1001D00070BD0023914201D3891A034340084900AE
:1001E0000028F7D100290AD0914202D10121C90784
:1001F00005E0914201D2012101E00121C943E0055E
:10020000C018401900F084F870BD10B50022962384
:10021000114600F085F810BDC20F410040020123D5
:10022000400ADB05D207090EC0187F2901DA002039
:100230007047962903DC9623591AC84001E0963985
:100240008840002AF4D040427047C20FD2074000D5
:1002500040080BD0C10D0723DB01C9184002090576
:10026000400A1143C208400711437047002001466D
:10027000704770B50446002903D0002020220123D6
:1002800010E0002801D00020C043C046C0460DE069
:100290002546D5408D4205D30D469540641B1D462D
:1002A000954040191546521E002DF1DC214670BDC7
:1002B000F0B51FB40646002082B0054640240191E7
:1002C00000901BE0019922460F46304600F050FA9C
:1002D000049A059B801A994110D31046194622466C
:1002E00000F036FA361A8F4101972246012000218C
:1002F000009F00F02DFA38184D4100902046641EF2
:100300000028DFDC019B00982946324607B0F0BD8B
:10031000002904DA401C490001D140084000704720
:1003200070B40024050C05D11024000402D100296A
:1003300021D01124050E01D100020834050F01D18E
:100340000001241D850F01D18000A41C002801DBC1
:100350004000641C002908D020252E1B0D46F540C6
:10036000A14000D001212943084301061B1B000ABC
:10037000DB1D02D5002070BC7047DB051818801803
:100380000029F8DA401C4900F5D170BC4008400053
:1003900070470000F0B507460846584087B0C00FC8
:1003A000049048000E46590040084908BC1A88418C
:1003B00005D2384631461E4617460B4602465800BF
:1003C000400810434CD0300D039040055900400DBB
:1003D000490D0590401A0290402872DA1803012155
:1003E000000B09050843019004980092002805D0ED
:1003F00001995242002088410092019002984021C8
:100400000A1A0199009800F0A3F905460C466B46BC
:1004100007CB00F0BEF9C0197141039A0E0D0023FD
:10042000D71756401A467A40164344D0049A002AF9
:100430002DD0029A012A039A15DC1205C01A9141A7
:1004400001263605001C7141D20F059ED20700938C
:10045000019202962A46234600F0BBF907B0F0BD90
:1004600038463146FAE71605224A0F46B218C01A36
:10047000B74101210905001C4F4100187F41114679
:1004800018187941E20F10436D19644113E0E20737
:100490006D0815436408C2071443039A0126120528
:1004A000C01A91413605001C7141CE074008304307
:1004B0004908C01851412A46234600F07DF9CDE78E
:1004C000FFE7049801224000C117121A00238B4154
:1004D00004983146C417381AA141EEE730B401241C
:1004E000E407634030BC55E730B40124E4076140C1
:1004F00030BC4FE70000E0FFF0B51FB488B00B99A7
:100500000998002448400999C00F490049080991F9
:10051000C0070B990090490049080B910999089868
:10052000A64608431CD00B990A98084318D009988E
:1005300001244000420D4800410D099824050003A4
:10054000000B204309900B980003000B20430B90F5
:1005500050181C494018002201901446104605E02E
:10056000002001460DB0F0BD032801DA034600E08B
:1005700003239C46C11A0AAE0AE05F0008ADED5B9A
:100580004F00F75B7D430027AA187C41491C5B1E86
:100590006145F2DD410004AB5A522104120C0A43BA
:1005A000240C401C0828DFDB01980290009970465B
:1005B00001910090059B049A0799069800F009F9AB
:1005C000D0E700000DFCFFFFF0B50C465C4085B0A5
:1005D000E40FE40703944C00002664085900944695
:1005E000490802460296224321D062460A431ED0A1
:1005F0006200570D4A000E032303550D01240246E5
:100600002C492405781B1B0B360B4018234326432B
:10061000614600901C46501AB44103D30098401C18
:10062000009002E0921800985B41002803DA002055
:10063000014605B0F0BD00200121090507468646A8
:1006400011E064461D46141BB54106D36546521B96
:10065000B341744607430C43A646CD0740084908FA
:10066000284392185B4105460D43EAD110461843D2
:1006700013D06046194650407140084306D060468A
:10068000101AB34106D20122002306E00022012302
:10069000DB0702E00122D2435310009874460105A3
:1006A000381C6141029C039D0019694100F084F8E7
:1006B000BFE70000FD0300004A0009030123090B06
:1006C0001B0519430A4B10B5520D9A4202DA00205D
:1006D000014610BD064B34339A4203DC9A1A00F0EF
:1006E00047F810BD034BD21800F032F810BD0000DF
:1006F000FF030000CDFBFFFF10B5002904DB012440
:10070000E40740428C412146002B04DB1C460123B8
:10071000DB075242A341994200D1904210BD000034
:100720001CB5094800900948019005460126009C27
:1007300005E0E36807CC33430C3C98471034AC42E7
:10074000F7D3FFF7C1FC0000803F0008A03F00087E
:1007500010B5202A04DB0146203A9140002010BD4C
:10076000914020239C1A0346E3401943904010BD5A
:1007700010B5202A04DB0846203AD040002110BDE5
:100780000B46D340D0402024A21A9140084319467A
:1007900010BD10B5202A06DBCB170846203A1041C1
:1007A000C1170B4306E00B461341D0402024A21A88
:1007B00091400843194610BD10B5002B08DA0024FB
:1007C000401C614192185B411A4301D1400840002E
:1007D00010BDF0B51FB482B005460C0003D008462A
:1007E00002F056FB02E002F053FB2030024600907C
:1007F00021462846FFF7ACFF049B059A04460F46A6
:1008000018431143084314D0184610431BD00098D6
:1008100040210A1A18460599FFF7AAFF05460E4619
:10082000009A05990498FFF793FF084305D001202B
:1008300004E02046394607B0F0BD0020C11705434B
:100840000E432C43374300990E986305401A7905EF
:10085000E40A00220C43FD0A0A3002D500200146BA
:10086000E9E70105101969410C9C0D9D00196941CA
:10087000FFF7A2FFDFE7000080B500200749012253
:10088000D306C3580B50001DC028F8D150070449A7
:10089000086001F089FE002080BDC04600000020F5
:1008A00008ED00E070B5044600688168002549073E
:1008B0001DD58168490706D58168C90703D08168BD
:1008C00010220A43826000F079FB064620688068A7
:1008D00040070CD500F072FB801B0328F6D3206B79
:1008E000102101432163606B012528436063284682
:1008F00070BD70B50446006881680025C9071ED028
:10090000816805220A40012A11D1816801229143A0
:1009100081600221016000F051FB0646206880687A
:10092000C0070CD000F04AFB801B0328F6D3206BD5
:10093000102101432163606B012528436063284631
:1009400070BD000010B582B00024019401688A686F
:10095000D2070BD18A680F4B1A420AD0016B1022C2
:100960000A430263416B012421434163204602B0E4
:1009700010BD8868012202438A607148006871498D
:10098000FFF777FC019001980028EFD00198401EF6
:10099000F8E7C04615000080064C012100222046E1
:1009A00000F004FB0121204600F0F8FA322000F0AC
:1009B00033FAF7E70004005005480168890705D5B8
:1009C0000221016003480168491C01607047C0466C
:1009D0000C180240F4040020F0B581B004462C202D
:1009E000205C012801D102252EE027462C37012565
:1009F0003D7021688A68206BD2071BD1812252008A
:100A00009043801C20630125E8078A6802438A60BE
:100A100000F0D4FA06462068806800280DD500F062
:100A2000CDFA801B0328F6D3216B10200843022146
:100A3000884306E02021084303E0206B022188431D
:100A40000025002139702063284601B0F0BD000068
:100A5000F0B583B0002402942C22825C012A01D1DB
:100A6000022056E007462C370668B268520715D4B4
:100A700001970D684B6801270097AF402E4A9342BB
:100A800012D1B06AB843B06228460B38012820461C
:100A9000019F3DD80B2D1AD02C4819E0016B202264
:100AA0000A430263012033E02B46B26A3A43B26242
:100AB000806A421E072A009D2DD218460B38012855
:100AC0002046019F24D80B2B07D0A80506E01E481E
:100AD0001A490A6802400A6019E0E80517490A68DD
:100AE00002430A600B2B204612D1154800681549B5
:100AF000FFF7BFFB0A2141430291029800282046DC
:100B000006D00298401E029002980028F9D1204693
:100B10003C7003B0F0BD2A079042CED07269072026
:100B2000024089689142C8D0726982437261014073
:100B3000706908437061C0E7011000000827014098
:100B4000C800002040420F00FFFF7FFFFFFFBFFFF4
:100B50000068006C7047000070B50125002850D077
:100B60000446006B002806D12C200021215461632B
:100B7000204600F083F8206BC0063ED420688168D0
:100B800049073AD481214900226B8A43911C216391
:100B90008168C9070CD1C16818229143A2680A4331
:100BA000C2600F21090702698A436168114301612C
:100BB000C168304A0A40C260616A491E4A1E9141BA
:100BC0000903227E9303627E55031D43E368266971
:100BD0002B430B43B11E4D424D41A9001943A37E47
:100BE000012B13D1002A0ED0226B20231343236341
:100BF000626B01231343636308E0206B1021014300
:100C00002163284670BD012212041143E269FF23CB
:100C1000C2339A4202D0236A19431143C2680A437D
:100C2000C260A26A531E072B1FD243690725AB433C
:100C300043612A40436913434361C0680E4A02403E
:100C40008A4207D100256563206B01210143022000
:100C50008143D5E7206B10210143022081432163AA
:100C6000606B012528436063CBE701231B079A4291
:100C7000DBD0E2E71BC2FEFFE7FF3FC310B586B043
:100C800000210591049100680F4A90421AD1012079
:100C900002050E4BDC681443DC60DC6814400094F1
:100CA000009A1A6802431A601A680240009203917F
:100CB000032002904020019005200007009901A91F
:100CC00000F0BCF806B010BD002401403410024012
:100CD000F0B581B00D4604464769082F00D00C27B7
:100CE00000F06CF921680A683A421CD001204202E7
:100CF000236B13432363CA681205920F22D1627ECD
:100D0000002A1FD10A6812071CD58A68520710D41E
:100D1000224630324B680C25AB434B60FF25023531
:100D20001368AB430CE00090002D1FD06E1C10D058
:100D300014E0226B20231343236322463432636B77
:100D400003431360227E0020002A17D10C220A6080
:100D500014E008683842C9D1002EFAD000F02EF90C
:100D60000099401AA84201D82168F2E72C200021FE
:100D70002154206B042101432163032001B0F0BD05
:100D800070B5044600688068022540071DD42C20F9
:100D9000205C012819D026462C36012535702046C6
:100DA000FFF7D0FD002810D1206B09490140012038
:100DB0000002081820630025656320681C2101607B
:100DC0003570816804220A438260284670BDC0469F
:100DD000FEF0FFFF70B504462C20205C012801D1F5
:100DE000022516E026462C36012535702046FFF7F1
:100DF00059FD00280BD12046FFF77BFD002806D1C6
:100E0000FF200230216B8143481C20630025002015
:100E10003070284670BD0000B0B5044600F0CEF832
:100E20000546601C02D004480068041900F0C6F8AA
:100E3000401BA042FAD3B0BDCC000020F0B588B072
:100E4000059007910C68002C00D19CE04F48059A52
:100E5000824201D0022000E0012005210907002381
:100E60008A421A46009300D0009013460692174615
:100E700001200546BD402C4078D004920394079A87
:100E8000566810213143122912D11C21069A1140B3
:100E90000F268E40FC08A400059A12190292126ACD
:100EA000B243079C26698E40164302990E6266681B
:100EB000032231461140994001929A400293059BCA
:100EC0001C6894430C431C60029BD143122E11D822
:100ED000B040314A10420DD0059CA0680840079AE6
:100EE000D2689A400243A2603009B8406268AA43BF
:100EF00002436260059AD068084007998968994062
:100F00000143D160F000039E049A2FD518201040B1
:100F10000F2181403A46019CA2431D4CA218146E39
:100F20008C4300998140214307981166194D296827
:100F30004068C20301D5314300E0B143144C29603D
:100F40006968820301D5314300E0B14369602168DB
:100F5000C20201D5314300E0B143049A21606168C7
:100F6000800201D5314300E0B14361607F1C0798E6
:100F700004682046F84008329B1C0699091D06911A
:100F8000002800D074E708B0F0BDC046000400504F
:100F900000180240801802400600060042690A421A
:100FA00001D0282200E0182281507047002A01D089
:100FB000182200E028228150704700000148006894
:100FC0007047C04698050020704770477047000082
:100FD000F0B587B00446006841680591216A27464C
:100FE00029377A782923E35C012675020496B60234
:100FF0000396402A01D0102A2ED1866942690692B2
:10100000D30700962ED155235E06B14200D1F5E0FC
:101010005B04994200D1F1E02A462E460197059BD8
:101020002B4059425941069E3607049E374600D54B
:101030000F46002F029200D181E058425841069B92
:101040009B07334600D50346002B019F059D10D119
:10105000204600F081FF77E0E16A0029019722D065
:10106000002121E02846059D02900542049E31465C
:1010700012D12846039A1040009A520744D44422C1
:10108000069B1A40402A00D0BAE0002800D1B7E001
:10109000204600F053FE57E0216A55204204914259
:1010A0003ED1012041E08169059A02952A405742CC
:1010B000574146690696B607049E00D53E46002E67
:1010C00018D00699C906019F34D40599039E314072
:1010D000F7263340212B00D0A8E08423069E33401E
:1010E000802B00D0ADE0002900D1AAE0204600F01E
:1010F000FFFF22E0E26A002A019F049E00D081697E
:10110000204601F017F81EE08422069B1A40802A30
:1011100000D080E000287ED0204600F099FE13E049
:10112000216A4006814201D108202062204600F059
:10113000A9FF09E0204601F05DF8049E03E0216B61
:10114000C9B20161019F059D01200202154069425B
:101150006941069B1B051B0F00D00E46002E029D09
:101160004CD1069B19462940134201D1002507E0C6
:1011700022684B4B5361C30315681D431560054638
:10118000039BC002069A1340002903D02168454AF8
:101190004A61AD1C069901400691002B1ED07B7858
:1011A000E28B3978606A202B0DD1002A0BD1F7220F
:1011B0000A40212A03D0282905D1212803D120461D
:1011C00000F0D6FF0AE02068374941612D1D79788B
:1011D000102903D10168029A114301600698002882
:1011E00002D1002D04D109E0206830494161083561
:1011F000E06A2843E062204600F0CCFC07B0F0BD76
:1012000006984007304600D5084600289CD1204665
:1012100000F020FD98E706984007304600D50846C4
:10122000002891D1204600F0D1FD8DE74423069E91
:101230003340402B1AD1002918D0204600F034FF4B
:101240007BE751425141069A5207049E324600D52F
:101250000A46002A059D00D076E7E18B002900D1DF
:1012600072E7A1690A780261481C14E051425141B9
:10127000069A5207049E324600D50A46002A059D6A
:1012800000D061E7E18B002900D15DE7A169006929
:101290000870A069401CA061E08B401EE08353E70A
:1012A000FFFEFFFFFFFDFFFFFFFBFFFFFFF7FFFF5D
:1012B000F0B583B0002819D004460746283778785F
:1012C000002804D100203870204600F07BF924204B
:1012D0007870206801680126B143016000F0C8FA07
:1012E00065683B498D4203D33B4902E001266CE02F
:1012F0003849884269D3029738490090FEF7B9FF10
:1013000006463F20C1432768786801910840304372
:1013100078604B20800070437D21C900FEF7A9FF53
:101320002B498D4200D30646701C396A019A114040
:1013300001433962F8692A4E06402A4885420BD893
:101340000098401E6900FEF794FF411C26480840A3
:1013500004281FD804201DE00098401EA168002921
:101360000BD019216943FEF784FF411C1E48084039
:101370000FD001218903401807E003216943FEF7DC
:1013800078FF411C1848084003D00121C9034018C8
:1013900000E001203043F8613868C02188432169AA
:1013A0000143606908433860B868FE218843E168FA
:1013B0000143B96038680121014339600026E662C3
:1013C00020200299487066628E70304603B0F0BDEE
:1013D000A186010080841E0000093D0040420F00EC
:1013E0000030FFFFA0860100FF0F0000704770472C
:1013F0007047704770470000F0B58BB008931646F1
:101400000991074604462834FFF7D8FD6178022584
:10141000202956D1069607942E460090664901254C
:101420000446192338462A4600F082FF002801D0DE
:10143000354646E0039704940595079C20780128DB
:1014400035463ED012980290119A1099059D25704C
:10145000039F38680368DB0704D1036801251D4337
:101460000560059DEB022E4605689D43056021231E
:1014700063704023A3700025FD62FA83FA8B4F4B03
:101480003B62B961BA83310202680A430260049880
:1014900000904B4938462A46029C234600F048FFFC
:1014A00000280DD1FE200999014038680161444EA1
:1014B000711C38462246049B00F088FF002803D0A8
:1014C000059D28460BB0F0BD0A95386841690A9120
:1014D00080690A900A9838462146049A00F0B4FFC1
:1014E00000280BD0F86A0428059DEAD1012568027E
:1014F000039909680A6802430A60E2E738680899B4
:10150000012905D10699C9B20161049B029C11E031
:101510000699090A01613846029C2146049E32461A
:1015200000F092FF0028DDD138680699C9B2016148
:101530003346234E7F3638463146224600F046FF7A
:101540000028BDD1B88B002823D038462146049A04
:1015500000F07AFF0028C5D13A68B86901781161B6
:10156000F98B491EF983411CB961BB8B591EB983A4
:10157000566976070AD50E0408D041781161991E84
:10158000B983801CB861F88B401EF8830804029C64
:10159000DBD138462146049A00F096FE0028A1D1FE
:1015A0000120400239680A6802430A602020079936
:1015B00048700D708D7084E7020010000000FFFF7E
:1015C0000100010010B586B000681649884226D196
:1015D00015488268012103914B051A438260826895
:1015E0001A400092009A02680A43026000680840AC
:1015F00000900C200590032104911221029101908A
:1016000000980520000701A9FFF718FC1724002106
:1016100020460A4600F06EF8204600F061F806B059
:1016200010BDC0460054004034100240704770475F
:101630001A48006802490A68101808607047C046D6
:101640009805002080B5032000F008F8002801D09C
:10165000012080BD00F024F8002080BDB0B5054613
:101660000E4801680124002916D07D20C000FEF735
:1016700000FE014685480068FEF7FBFD00F066FAB3
:10168000032D09D8002807D10024E043294622462B
:1016900000F030F8754805602046B0BDCC00002051
:1016A00082B00948416801221143416041681140FC
:1016B00001910199110702680A430260006808401D
:1016C0000090009802B070473C1002401F2101407A
:1016D00001208840014908607047C04680E100E071
:1016E0001F21014001208840014908607047C04621
:1016F00000E100E0002805D4032203469343094A91
:101700009A1803E00C220240074BD2188007C00E43
:101710008901C9B28140FF23834010689843084380
:101720001060704700E400E014ED00E0F0B583B015
:1017300000284AD00D4602904A48006801210191D4
:101740000840A84214D2474908680126B0432843FC
:101750000860454CFFF732FC0746424800683040BD
:10176000A84205D0FFF72AFCC01BA042F5D976E0BD
:10177000029C20688107464B0DD5410704D50721FF
:1017800009031A680A431A600F2109021A688A437A
:10179000A16811431960C00719D1324801680120BE
:1017A0000140A9421DD92F4A1168814311602E4C76
:1017B000FFF704FC05462B480068C00711D0FFF76F
:1017C000FDFB401BA042F6D949E0012048E06668D5
:1017D000002E25D0012E28D1194608390968890321
:1017E00025E0029A1078400707D507200003284B10
:1017F00019688143D0680843186000F04DF8244907
:10180000096889093C220A40CD4989581F220A40AB
:10181000D040CC490860CC480068FFF71FFF1FE0AC
:10182000194608390968490501E0996D8907019849
:1018300016D5196807229143314319600A4FFFF703
:10184000BDFB064612480068382101406068C000B0
:101850008142A2D0FFF7B2FB801BB842F2D903202D
:1018600003B0F0BD0020024088130000D00000202B
:10187000B448006806490968890A1C220A400549DB
:1018800089581F220A40D0407047C046C800002037
:1018900008100240D4370008104881688906490FB3
:1018A00006D0826838210A40082A0FD10C487047B8
:1018B000016840680004400F042800D9002080001F
:1018C00008A210588904490FC84070478068084032
:1018D000183841424141C8037047C04600100240D9
:1018E00000366E0100093D0000127A000024F40069
:1018F0004086510100366E01F0B583B00125002805
:1019000000D115E1019502900078C0078A4F09D1F6
:1019100002980078800712D402980078000730D42B
:10192000002505E1B86838210140082937D1386819
:101930008003EDD5029840680028E9D180E0B868BE
:101940008006400F48D0386801218C02029EF26860
:10195000002A77D00722D2029043326902433A60CC
:101960000802396801433960FFF728FB05463868EB
:10197000204200D08FE0FFF721FB401B0228F6D960
:1019800046E0B86838210140182943D1386E8007F5
:10199000C6D5029880690028019DC1D1C8E002998E
:1019A000486800285FD08968002949D03A690C232B
:1019B0009A430A433A6105210904884200D19FE015
:1019C00001221104884200D1A0E0386888433860C1
:1019D0009104386888439BE0012538684005029AE5
:1019E00003D5D068002800D1A2E0AC025348401CC7
:1019F00079680140506908437860FFF7DFFA0646CE
:101A0000386820424FD1FFF7D9FA801B0228F7D956
:101A100003258DE0386E0299896900295FD0012184
:101A200008433866FFF7CAFA0446386E800700D5C7
:101A300076E7FFF7C3FA001B03250228F5D977E004
:101A4000019D75E0090288433860FFF7B7FA064642
:101A50003868204200D15FE7FFF7B0FA801B03250A
:101A60000228F5D964E0012001043A688A433A600B
:101A700081043A688A433A604404FFF79FFA0646B5
:101A80003868204200D143E7FFF798FA801B03250E
:101A9000C828F5D94CE02948401C79680140706994
:101AA0000843786038E70720C0023968814302980C
:101AB000006908433860FFF7EFFEB96889093C22E6
:101AC0000A401F4989581F220A40D0401D4908601A
:101AD0001D480068FFF7C2FD002829D11CE701213D
:101AE00088433866FFF76AFA0446386E800700D4E8
:101AF00016E7FFF763FA001B03250228F5D917E064
:101B0000012081043A680A433A60010438680843B6
:101B1000386001204404FFF751FA06463868204235
:101B200000D0F5E6FFF74AFA801B0325C828F5D94F
:101B3000284603B0F0BDC04600100240FFFFFEFF84
:101B400094370008C8000020D0000020401E010E7D
:101B500001D0012070470749074A506007480368D1
:101B60000B4003218907591801600020906007216C
:101B700011607047FFFFFF0010E000E020ED00E083
:101B8000FEE7000080B50248FFF722FA80BDC0469C
:101B900030050020B0B504462920205C25462935B3
:101BA0006978102908D1222806D10120C0022168B5
:101BB0000A6882430A600AE0282102460A40282A6D
:101BC00003D100206062297006E0602801D0202047
:101BD00028700020606268702878602816D1202064
:101BE00028700020E06220684169490606D5A16995
:101BF00000690870A069401CA0612068016801228A
:101C0000914301602046FFF7DFF90CE0206841694D
:101C1000490605D5A16900690870A069401CA0614A
:101C20002046FFF7D3F92878E16A490711D528281B
:101C30000FD10720000221684A6882434A60C548E4
:101C40002062002060622021297068702046FFF722
:101C5000CDFBB0BD10B5026AC18B042907D10121AB
:101C60008902026853688B435360816920E0C18B0D
:101C700003290FD101684C682F4B1C404C60022A8D
:101C800004D0042A02D00A681A400A6082690969ED
:101C900011700FE0C18B022908D101462931032AB6
:101CA0000FDC012A11D0022A15D017E081690268E1
:101CB00012690A708169491C8161C18B491EC18307
:101CC00010BD042A07D0102A08D10122930202680D
:101CD00014689C4307E00122930201E001225302B1
:101CE000026814681C431460836912691A70C28BFD
:101CF000521EC2838269531C836103681B6953703F
:101D0000C28B521EC2830322120203685C68944392
:101D10005C6020220A708269521C82614B7800222A
:101D20004A70402B03D14262FFF763FB10BD1221C2
:101D30004162FFF75CFB10BDFFFBFFFF10B52921DF
:101D4000415C222940D1C18B042913D381690268E7
:101D500012690A70C18B491EC1838169491C816166
:101D6000C18B032930D101218902006842688A436E
:101D7000426010BD026A012926D8022A24D00146F9
:101D800029310122920203681C6894431C600722D7
:101D900012025C6894435C6082691B691370C28B99
:101DA000521EC28320220A708269521C82614B78C3
:101DB00000224A70402B03D14262FFF71AFB10BD8C
:101DC00012214162FFF713FB10BD000010B5026A3B
:101DD0002921415C21292AD1C18B002909D0016820
:101DE000826913780B61511C8161C18B491EC183CB
:101DF00010BD01462931A24B9A4203D0082A01D0D6
:101E0000202A15D10722120203685C6894435C60A3
:101E1000012252021C6814431C60002242622023EB
:101E20000B704B784A70402B0ED1FFF7E3FA10BDD0
:101E30000722120203685C6894435C6011224262CC
:101E400000224A7020220A70FFF7D2FA10BDC04665
:101E5000B0B52921425C014629314C78036A858B53
:101E6000002D1DD1212A1BD1394AE14CA34203D0B8
:101E7000082B01D0202B31D103685C6814405C60D2
:101E8000012252021C6814431C600022426220237B
:101E90000B704B784A70402B2AD1FFF7ABFAB0BDDC
:101EA000212A03D0402C51D1222A4FD1C28B002AA3
:101EB0000DD04A78402A40D1C26B002A1BD0C26B99
:101EC000012A22D10168426BD2B20A612EE00121BF
:101ED0008902006842688A434260B0BD03685C685A
:101EE00014405C601122426200224A7020220A7073
:101EF000FFF77EFAB0BD826B416B012A12D10268F6
:101F0000C9B21161C16B891C12E0C26B022A1DD1DA
:101F10000A78222A0ED101210902006802680A43C8
:101F20000260B0BD0268090AC9B21161C16B491CE7
:101F3000C163B0BD0978212908D10168826913788D
:101F40000B61511C8161C18B491EC183B0BDC0466C
:101F5000FFF8FFFF0000FFFF10B581B001462931F7
:101F60004B78016A426A2924045D222C04D1C46B97
:101F7000002C0AD1402B08D1002100910068416952
:101F800000918069009000984CE0C38B002B1FD01B
:101F9000C38B012B2AD1202908D0082906D0C94B90
:101FA000994203D0122A3FD101293DD001218A0252
:101FB00003681C6894431C60002200925A690092D6
:101FC0009A690092009A49021A680A431A6027E047
:101FD0000021009101684A6900928A690092009A82
:101FE000012252020B6813430B6019E0C28B022AD4
:101FF00009D1102925D8012213468B401F490B42D5
:102000001FD0910201E001218902026813680B438D
:10201000136000210091516900919169009100992C
:102020000021C16301B010BD10291BD80122134645
:102030008B4012490B4215D0920201680B68134382
:1020400015E00121CA0203681C6814431C600022C9
:1020500000925A6900929A690092009A89021A685D
:102060008A43B3E701218A0201680B6893430B603E
:10207000002200924A6900928969CFE714000100AA
:102080000000FFFF014629314A78402A01D1C16B87
:1020900001E0097821394A1E9141026BFE23134069
:1020A000591800680161704710B52921415CC28B45
:1020B000002A1CD0826903681B691370C28B521EF0
:1020C000C2838269521C8261C28B002A0FD12A29E5
:1020D0000DD1014629310122920203685C689443C4
:1020E0005C602222426228220A70FFF79FFA10BD2C
:1020F00010B52921425CC18B00291AD0016883697F
:102100001C780C61C48B641EC4835B1C8361C38B0D
:10211000002B0ED1292A0CD10246293201239B0221
:102120004C689C434C602121416228211170FFF7CB
:102130007EFA10BDB0B504462834627828251540D3
:102140000368282D0ED1002222700124A4025D68AC
:10215000A5435D60042319404B424B411946FEF7ED
:1021600034FFB0BD002020700220C0435861B0BDD4
:10217000B0B52921435C046A2546203D691E8D4186
:10218000083C611E8C4102462932C9492C4215D1B6
:10219000282B13D14B4B036207231B02046865688D
:1021A0009D436560616123680B40236000214162AB
:1021B000202313705170FFF719F9B0BD212B14D1F2
:1021C000F54B0362212343622023137000235370D5
:1021D0000722120203685C6894435C6059611A68C4
:1021E0000A401A60FFF723FAB0BD00684161B0BD34
:1021F0000000FFFFF0B581B004462920265C0720CF
:102200000102206842688A434260002500954169C6
:102210000091016801221143016000999102026856
:102220008A430260E18B00291FD04169490709D523
:10223000A16900690870A069401CA061E08B401E84
:10224000E08320684169490608D5A16900690870E2
:10225000A069401CA061E08B401EE083E08B002859
:1022600003D0E06A04210143E162E06A002803D060
:102270002046FFF78FFC22E0274629372A2E05D17A
:102280006562282038702046FFF7D0F93878282872
:1022900009D1C14820626562202038707D702046D7
:1022A000FFF7A4F80BE0606A222801D0222E06D1A5
:1022B0006562202038707D702046FFF7B7F901B0C5
:1022C000F0BDC0460000FFFFF0B581B00F460446E8
:1022D000036859690020490727D41646009025460F
:1022E0002835194614315A69520511D4791C08D081
:1022F000FEF764FE2021002F0DD0801BB8420AD8C3
:102300002368194614315A695207ECD500980CE03D
:102310006748086004210020606220226A70A8706B
:102320002870E06A0843E062012001B0F0BDC046B9
:10233000F0B585B01E460546FF2004040C4001237D
:10234000180404948442029301D0182000E0142061
:102350002B6818588FB23840C01B414241410020C1
:10236000914230D101902846283000900A9803907D
:10237000701C0BD02C461546FEF720FE2A4625463B
:10238000002E15D00399401AB04211D80120000444
:102390000499814201D0182000E0142029680858CF
:1023A0003840C01B414241419142E1D001980AE0CE
:1023B000002068622021009A517090701070E86AC5
:1023C0000843E862029805B0F0BD0000F0B583B0A4
:1023D00004468DB20668716929400020A94231D0B7
:1023E0001746019021462831029131461431726915
:1023F000520514D4791C0AD01E46FEF7DFFD2021B9
:10240000002F14D0801BB84211D833462668726959
:102410002A4031461431AA42E9D1019812E0012242
:1024200052023368134333602148086004210020BE
:1024300060622022029B5A7098701870E06A08430C
:10244000E062012003B0F0BDF0B581B00F46044654
:10245000036859690020090627D4164600902546CE
:102460002835194614315A69520511D4791C08D0FF
:10247000FEF7A4FD2021002F0DD0801BB8420AD802
:102480002368194614315A691206ECD500980CE0FD
:102490000748086004210020606220226A70A8704A
:1024A0002870E06A0843E062012001B0F0BDC04638
:1024B000FFFBFFFFFEE77047704780B5FFF7B8F8F6
:1024C00080BD0000B0B58CB005AC201D1821FDF713
:1024D00016FE072568032F490A6882430120C303BB
:1024E000D2180A6000020890022005902046FFF7EB
:1024F00003FA00280DD10021049103910291019566
:1025000001A8FFF713F9002803D100F005F80CB07B
:10251000B0BDFEF741FAC04610488268382111402C
:10252000082904D0182904D10121C9030BE00C4962
:1025300009E04168C90A1C220A400A498958026810
:102540009204520FD140084A1160806880093C23F0
:1025500003400648C058C140116070470010024057
:1025600000366E01603F0008C80000209437000864
:1025700008480168084A0A4008490968084B194098
:102580005118C918491C01600120C006054908609E
:102590007047C046041002400000FFFF040FFF1FF9
:1025A000FF1F000008ED00E088B0FFF74BF8FFF7D1
:1025B00089FF002507959E4F386802263043386012
:1025C00038683040029002989A48012421462246F9
:1025D000FEF7ECFC069505950494039403A9954831
:1025E000FEF72CFC0795069538682043386038685C
:1025F000904F2040029005968F48049003960298D1
:102600000526300703A9FEF719FC304629462A465D
:10261000FFF770F83046FFF763F838462146224648
:10262000FEF7C4FC85488649864A026041608560A1
:10263000C56005614561FEF73BFE002800D0F4E06F
:1026400081480721857605830422804BFF26C23608
:10265000C661056245628162610703604160856011
:10266000C560056142610595FEF776FA002800D045
:10267000DBE07548FEF7B0F9002800D0D5E0062071
:10268000039020030490704803A9FEF7E1F90028A5
:1026900000D0CAE00121002538462A46FEF786FC14
:1026A000664800F03BF9002807D001213846FEF7C4
:1026B00075FC6420FEF7B0FBF7E7012138460A46B7
:1026C000FEF774FCC820FEF7A7FB61A063490CC8A5
:1026D0000CC10078087062A064491CC81CC1FEF7D8
:1026E0006DFC0446584F0195FEF768FC0646001B3A
:1026F0006428F9D33846FEF743FB0A213846FEF733
:10270000E7FA00282C4603D13846FEF721FA0446A2
:102710003846FEF75FFB2046FDF777FD5449FDF78D
:1027200036FD04465349FDF7F5FCFDF78EFD0246E4
:102730000B464E4850A100F097FB534F534838606A
:102740007860B860F8608320C1052046FDF7E2FCA0
:10275000FDF762FD0146C0178143102900D3102107
:10276000002903D03D223846FDF7C2FC00243C740A
:1027700005252846FEF7AAFF454807680460284655
:10278000FEF7AEFF3846FDF740FD4249FDF7C2FCBB
:10279000FDF75BFD02460B4630483FA100F064FBAD
:1027A000204600F0ADF802242046214600F0A0FAB1
:1027B0003C4806C80838054601273BA03B4600F0C8
:1027C00035FB0F21204600F093FA06CD27483B4603
:1027D00000F02CFB1E252046294600F089FA3148DE
:1027E00006C835A03B4600F021FB2020294600F01A
:1027F0007FFA2C4806C80838054623483B4600F0B7
:1028000015FB2D21204600F073FA06CD13483B46F8
:1028100000F00CFB094800F071FA06483946FEF753
:10282000BDFB3446019D084F5EE7FEF7B5F8C04694
:102830003410024000040050000011103005002048
:10284000A086010000540040F8040020002401404C
:1028500052504D3A202D2D2D0000000084050020FF
:102860005041363A202D2D2D6B506100700500200F
:1028700000F07F45000096435041363A20252E3126
:10288000666B506100000000E00400202020202042
:10289000F40400200000164452504D3A20252E30FA
:1028A00066000000C0000020476175676520526522
:1028B00061646F75740000004C564C3A00000000D3
:1028C000B0B543B2002B17D43F2915D80B4B1B785A
:1028D0005D425D4107240C400123A3401F24E40115
:1028E0000901214008180C49954202D10A5C1A439B
:1028F00001E00A5C9A430A54B0BDC046DC000020E7
:1029000080B5002801D1024600E0FF2201208102AB
:10291000F648FDF7EDFB80BDE0000020F0B5A3B068
:1029200007466420FEF778FA22A8AE2101700A213A
:1029300001260090019602910C461E9178210022FA
:10294000209238460D463346FEF756FD1D9022A8CC
:1029500020211991017000900196029438463C465E
:102960002F461F952946209D2A463346FEF744FDF3
:102970001C9022A8102116910170009001961E98BB
:102980000290204639462A463346FEF735FD1B9015
:1029900022A8B0210170009001961E9D02952194FD
:1029A00020463946209A3346FEF726FD1A9022A883
:1029B000C821017000900196029520463946209D5D
:1029C0002A463346FEF718FD189022A805702A46BD
:1029D000009001961E9C0294219F38461F9D294617
:1029E0003346FEF709FD179022A816990170009052
:1029F0000196029438462946209D2A463346FEF722
:102A0000FBFC169022A840210170009001960294D0
:102A100038461F9F39462A462C463346FEF7ECFCC3
:102A2000159022A881210170009001961E980290B5
:102A3000219839463D4622463346FEF7DDFC149088
:102A400022A8FF210170009001961E9C0294219FF4
:102A500038462946209D2A463346FEF7CDFC139082
:102A600022A8A121017000900196029438461F9F70
:102A700039462A463346FEF7BFFC129022A8A6210B
:102A80000170009001960294219839463C462A46EE
:102A90003346FEF7B1FC119022A8A82101700090E6
:102AA00001961E980290219F384621462A463346B9
:102AB000FEF7A2FC109022A83F2101700090019621
:102AC0001E9C029438461F9F39462A463346FEF71D
:102AD00093FC0F9022A8A42101700090019602940B
:102AE000219839462A463346FEF786FC0E9022A8E6
:102AF000D3210170009001960294219F38461F99BE
:102B00002A463346FEF778FC0D9022A82A46057027
:102B100000900196029438463D461F9F3946334641
:102B2000FEF76AFC0C9022A8D52101700090019656
:102B30000294284639463D46209A3346FEF75CFC0F
:102B40000B9022A8F0210170009001960294219F21
:102B500038462946209D2A463346FEF74DFC0A900A
:102B600022A8D921017000900196029438461F9F37
:102B700039462A463346FEF73FFC099022A8222117
:102B80000170009001960294219839462A463346F6
:102B9000FEF732FC089022A8DA210170009001961D
:102BA0000294219F38461F9C21462A463346FEF751
:102BB00023FC079022A812210170009001961E9814
:102BC00002903846274621462A463346FEF714FC33
:102BD000069022A8DB210170009001961E9C0294B1
:102BE000219839463D46209A3346FEF705FC05906C
:102BF00022A819990170009001960294219F3846ED
:102C00002946209A3346FEF7F7FB199022A88D211A
:102C10000170009001962546029438463C461F9F5D
:102C20003946209A3346FEF7E7FB049022A8142188
:102C300001700090019602952046209C394622465C
:102C40003346FEF7D9FB22A9AF220A700091019604
:102C500002951D991C9A51181B9A89181A9A89185D
:102C6000189A8918179A8918169A8918159A89181E
:102C7000149A8918139A8918129A8918119A89181E
:102C8000109A89180F9A89180E9A89180D9A89181E
:102C90000C9A89180B9A89180A9A8918099A89181E
:102CA000089A8918079A8918069A8918059A89181E
:102CB000199A8918049A89180F1821981F9925467E
:102CC00022463346FEF798FBC7420CD10120810211
:102CD0002D48FDF714FA219800F010F852482E46BE
:102CE000058050480580304623B0F0BDE00000204C
:102CF0004D4A11804B4908807047C046F0B58BB0F3
:102D000007900025204F039505972846503808A9BD
:102D100008700A2006900126009101960290782101
:102D20000491079C2046039F3A463346FEF764FB16
:102D300009A8077000900196069802902046049C0E
:102D400021463A463346FEF757FB0AA81021017088
:102D50000090019606980290079821463A46059FF2
:102D60003346FEF749FB64208021009701910290D1
:102D70004022079821463346FEF73EFB80376D1C04
:102D8000082DC1D10BB0F0BDE0000020F0B587B038
:102D9000059313460446234D2A88CEB2B718002067
:102DA0007F2F3DD82746039306961F4C2688090A95
:102DB000CCB2A1193F2933D8002C06983E462CD01E
:102DC00005994F424F4101963346203B634302939E
:102DD00000250494002819D002982818400003996F
:102DE0000E5A00243046A04000043A4600D5059A09
:102DF0000C4800882018C0B20B4909886918C9B26C
:102E0000FFF75EFD641C0698A042EBD16D1C049C8C
:102E1000A542DFD1034D2A88019E10182880304634
:102E200007B0F0BDD8000020DA000020F0B581B076
:102E30000E46074600780021002812D01C46154691
:102E40000091C0B231462A462346FFF79FFF014654
:102E50003878814206D178787F1C0028F1D100981B
:102E600000E0084601B0F0BD0FB410B504A9074B4F
:102E700002AA039800F0ECF8044602A9002000F032
:102E800083FC204610BC08BC04B0184789370008F2
:102E90002021020C01D010211046020A01D0104658
:102EA0000839020901D01046091F820801D01046D6
:102EB000891E420801D0881E7047081A704702E038
:102EC00008C8121F08C1002AFAD1704770470020B5
:102ED00001E001C1121F002AFBD17047F0B51FB4F9
:102EE00086B00998089A030D0021024314D0514876
:102EF000514A1818504305141198012810981AD0F7
:102F0000281A401C00264D4F4D490096019104900F
:102F1000002812DA444211E01198012449A3012843
:102F200001D11098C1430698119A84600360C26071
:102F300041600BB0F0BD4042E4E7044621050020AB
:102F40003F4A001C51410391029012E0E00707D074
:102F500032463B4601990098FDF7CEFA0191009068
:102F600032463B4610461946FDF7C6FA06460F465E
:102F70006410002CEAD10498039B0028029A099956
:102F8000089806DAFDF7B8FA019B009AFDF7B4FA43
:102F900005E0FDF719FB019B009AFDF715FB0446C0
:102FA0000E460022284BFDF7A7FB03D80020C043A4
:102FB000014607E00022254B20463146FDF7EAF99D
:102FC000FDF77AFB102409E0002C0ADB0A2200231B
:102FD000FDF76EF9079B30321A55641E02460A430C
:102FE000F2D11122641C079B121B1C19119B012B8F
:102FF00003D0012308430ED10AE0084304D0112076
:1030000010900020119077E71098151A6D1E0BE0B4
:103010001098824202DD00236D1C03E0824201DA37
:1030200000236D1E002BEED0069811998260C160BE
:1030300030C07EE701FCFFFF104D0000000014408F
:103040000000F03F300000000000F0430000E03FCF
:10305000FFB597B00646002518E2252877D1002451
:103060002746FD49049400E00443761C3278012091
:10307000203A90400842F7D130782A280ED0022218
:10308000307801463039092916D804990A23594362
:10309000303940181443761C0490F1E7189802C8A0
:1030A00004911890002904DA0120400304434842A7
:1030B000049002200443761C30782E2814D104207A
:1030C00004437078761C2A2809D11898761C80C889
:1030D000189009E00A214F43303FC719761C307819
:1030E000014630390929F5D930786C2810D006DC32
:1030F0004C281AD068280ED06A2817D104E074280A
:1031000013D07A2812D110E00120400504430CE0CE
:103110000121090501E0032109050C437178814271
:1031200003D1012000052418761C761C30781190FC
:1031300066280BD013DC58287DD009DC00287BD012
:103140004528F6D04628F4D047281AD1A5E118E042
:10315000632835D0642870D0652812D19DE170288D
:103160006CD008DC6728F1D069287BD06E280DD0A0
:103170006F2806D1BAE073282ED0752871D0782830
:1031800059D01A9A199990476D1C7EE16002400F40
:10319000022809D003280DD00428189801680DD002
:1031A0000D60001D189070E11898EA1701680D6015
:1031B0004A60F6E7189801680D80F2E70D70F0E7B5
:1031C00018986A4601781172001D189000205072FC
:1031D00002A80090012005E0189802C8189000206D
:1031E0000091C04361070DD5002101E00199491C00
:1031F0000191B94212DA8142F8DB009A515C002950
:10320000F4D10BE0002101E00199491C01918142B8
:10321000FADB019A0099895C0029F5D1019904989B
:103220001A9B471A21463846199A00F097FA0199D5
:10323000401945180BE04FE02CE113E04EE00098F8
:1032400000990078491C00911A9A199990470198A1
:10325000401E0190401CF2D1214638461A9B199A13
:1032600010E137E00A200021009001916002410F37
:10327000022907D0189A01CA1892C2179446032946
:1032800008D00AE01898C01DC108C90005C91891E6
:10329000944607E000B2C2179446042902D140B216
:1032A000C1178C4600226146944506DA0A46002181
:1032B000404291418C462D2102E0210504D52B216D
:1032C0006A461173012103E0E10701D02021F7E7ED
:1032D000029155E00A200AE0102008E0102000903A
:1032E0000021042004430191082703E00820002165
:1032F000019100906002410F022907D0189A01CA7B
:10330000189200229446032908D008E01898C01D9E
:10331000C108C90005C91891944603E080B2042988
:1033200000D1C0B200210291210729D5119970293D
:1033300006D0009A1021019B4A401A4305D00EE0A6
:1033400040216A461173012108E06146014306D01D
:1033500030216A4611731199517302210291009A2A
:103360000821019B4A401A430AD16146014301D119
:10337000610705D530216A46117301217F1E029134
:103380001199582904D035A10E910DA90D910DE088
:1033900037A1F9E76146019B009AFCF789FF0E9B74
:1033A0008C469B5C0D9A521E0D9213706146014330
:1033B000F0D10D9805A9081A20300190600703D5B7
:1033C00001200004844300E001270198874201DDC9
:1033D000381A00E00020019900904118029809185D
:1033E0000498401A0490E00306D421461A9B199AC7
:1033F000049800F0B3F94519002706E003A81A9ACB
:10340000C05D199990476D1C7F1C02988742F5DBBF
:10341000E0030CD521461A9B199A049800F09EF9F6
:10342000451904E01A9A3020199990476D1C0099AB
:10343000481E00900029F5DC08E00D980D990078F1
:10344000491C0D911A9A199990476D1C0199481EB3
:1034500001900029F1DC63E10928010030313233A9
:1034600034353637383961626364656600000000C0
:1034700030313233343536373839414243444546AA
:103480000000000000F05AF94519761C3078002839
:1034900000D0E2E528461BB0F0BD600700D4062747
:1034A0001898C01DC108C90048680A680831C30FD0
:1034B000DB071891190001D09CA108E0210501D576
:1034C0009BA104E0E10701D09AA100E09AA143008A
:1034D00011985B08109165280CD006DC452809D0AE
:1034E00046281DD0472841D141E0662818D06728DA
:1034F0003CD13CE00021112F01DB112000E0781CC1
:103500000191009008A911A8FFF7E8FC1399059113
:103510000021119A15927F1C12980197009150E09A
:103520000120C00703900120019008A9009711A86D
:10353000FFF7D4FC139A149905920022119B009274
:1035400012981593059A0192002901D0104602E0C5
:10355000791C40180190381A01D5019804E04042C6
:10356000401E0090781C0190C01B029043E0012F88
:1035700000DA01270021112F01DD112000E038467B
:103580000191009008A911A8FFF7A8FC13990591D3
:10359000119A0021129815920091019721070CD4DD
:1035A0000599B94201DB019900E00191012904DD8F
:1035B000159A491E515C302906D0B84201DA011D26
:1035C00005DA0121029115E00199491EEDE7002875
:1035D00005DC0099411800910199091A03E0019A4C
:1035E000411C914200DD01910099401A401C02905B
:1035F0000120C0070390200706D402990198814258
:1036000002DB0020C043029000206946C87707AF64
:10361000012103980337C907884224D00220119062
:103620002B201290039800280CDA404203902D20A2
:10363000129007E00A210398FCF71BFE30317F1E31
:10364000039039701199481E11900029F2DC0398FB
:103650000028EFD1791E1298087030782021084098
:103660004530BF1E387006A8C01BC01D03901098BF
:103670000078002800D00120019941180298C01755
:103680000918039809180498401A401E0490E00392
:1036900006D421461A9B199A049800F05FF8451940
:1036A00010980078002803D01A9A199990476D1C39
:1036B000E00324D521461A9B199A049800F04EF88D
:1036C00045191CE00098002807DB009905988842FE
:1036D00003DD1598405C199901E0199930201A9A78
:1036E000904700986D1C401C00900298401E02906C
:1036F000002804D11A9A2E20199990476D1C01991F
:10370000481E01900029DDDC05E038781A9A7F1CFC
:10371000199990476D1C0399481E03900029F4DC09
:1037200021461A9B199A0498ACE600002D0000006F
:103730002B0000002000000000000000F8B5044647
:1037400000251E461746880404D405E0394620208B
:10375000B0476D1C641EF9D52846F8BDFFB5044678
:10376000002581B01E46C80301D5302700E0202780
:10377000880404D505E038460399B0476D1C641EE3
:10378000F9D5284605B0F0BD0A68531C0B601070CF
:103790007047000000000000000000000000000072
:1037A0000000000000000000000000000000000019
:1037B0000000000001000000020000000300000003
:1037C00004000000060000000700000008000000E0
:1037D00009000000000000000000000000000000E0
:1037E00000000000010000000200000003000000D3
:1037F00004000000000000000000000000000000C5
:103800000000000000000000001000100010001078
:103810000010001000000010000000000028002828
:103820000028000000000000000000000000000070
:1038300000240024007C00240048007C004800484C
:1038400000000000003800540050003800140054FC
:1038500000540038001000000020005400580030D0
:103860000028005400140008000000000010002888
:103870000028001000340048004800340000000018
:103880000010001000100000000000000000000008
:103890000000000000080010002000200020002090
:1038A0000020002000100008002000100008000880
:1038B0000008000800080008001000200010003870
:1038C00000100028000000000000000000000000C0
:1038D0000000000000100010007C0010001000002C
:1038E00000000000000000000000000000000000D8
:1038F0000000001000100010000000000000000098
:10390000000000380000000000000000000000007F
:103910000000000000000000000000100000000097
:103920000008000800100010001000100020002007
:1039300000000000003800440044005400440044EB
:10394000004400380000000000100030005000105B
:1039500000100010001000100000000000380044AB
:1039600000440004000800100020007C000000005B
:10397000003800440004001800040004004400382B
:103980000000000000080018002800280048007C03
:103990000008000800000000007C004000400078A3
:1039A0000004000400440038000000000038004417
:1039B000004000780044004400440038000000004B
:1039C000007C0004000800100010002000200020EF
:1039D0000000000000380044004400380044004467
:1039E0000044003800000000003800440044004457
:1039F000003C00040044003800000000000000000B
:103A00000010000000000000000000100000000096
:103A10000000000000000010000000000000001086
:103A20000010001000000000000C003000400030CA
:103A3000000C000000000000000000000000007CFE
:103A40000000007C000000000000000000000000FA
:103A50000060001800040018006000000000000072
:103A6000003800440004000800100010000000109E
:103A70000000000000380044004C0054005C00408E
:103A80000040003800000000001000280028002836
:103A90000028007C0044004400000000007800443E
:103AA0000044007800440044004400780000000016
:103AB000003800440040004000400040004400380E
:103AC000000000000070004800440044004400442E
:103AD0000048007000000000007C00400040007CB6
:103AE000004000400040007C00000000007C0040DE
:103AF000004000780040004000400040000000000E
:103B00000038004400400040005C0044004400389D
:103B100000000000004400440044007C00440044D5
:103B200000440044000000000038001000100010A5
:103B30000010001000100038000000000004000415
:103B400000040004000400040044003800000000E9
:103B50000044004800500060005000480048004405
:103B600000000000004000400040004000400040D5
:103B70000040007C000000000044006C006C005419
:103B8000004400440044004400000000004400647D
:103B9000006400540054004C004C0044000000003D
:103BA000003800440044004400440044004400380D
:103BB0000000000000780044004400440078004009
:103BC0000040004000000000003800440044004471
:103BD0000044004400540038000400000078004411
:103BE0000044004400780048004800440000000001
:103BF0000038004400400030000800040044003851
:103C000000000000007C00100010001000100010E8
:103C10000010001000000000004400440044004474
:103C20000044004400440038000000000044004408
:103C300000440028002800280010001000000000A8
:103C400000440044005400540054006C0028002834
:103C50000000000000440028002800100010002888
:103C60000028004400000000004400440028002810
:103C7000001000100010001000000000007C000484
:103C800000080010001000200040007C0000000030
:103C9000001800100010001000100010001000109C
:103CA000001000180020002000100010001000106C
:103CB0000008000800000000003000100010001094
:103CC000001000100010001000100030001000283C
:103CD0000028004400000000000000000000000078
:103CE00000000000000000000000000000000000D4
:103CF000000000FE00200010000000000000000096
:103D00000000000000000000000000000038004437
:103D1000003C0044004C0034000000000040004023
:103D20000058006400440044006400580000000093
:103D3000000000000038004400400040004400380B
:103D400000000000000400040034004C0044004463
:103D5000004C003400000000000000000038004467
:103D6000007C00400044003800000000000C0010FF
:103D7000007C001000100010001000100000000077
:103D8000000000000034004C00440044004C0034AB
:103D900000040078004000400058006400440044E3
:103DA00000440044000000000010000000700010FB
:103DB00000100010001000100000000000100000B3
:103DC000007000100010001000100010001000E043
:103DD000004000400048005000600050004800448F
:103DE0000000000000700010001000100010001013
:103DF00000100010000000000000000000780054D7
:103E00000054005400540054000000000000000062
:103E100000580064004400440044004400000000D6
:103E20000000000000380044004400440044003812
:103E3000000000000000000000580064004400443E
:103E40000064005800400040000000000034004CB6
:103E500000440044004C0034000400040000000052
:103E60000058006400400040004000400000000096
:103E70000000000000380044003000080044003812
:103E8000000000000020002000780020002000201A
:103E90000020001800000000000000000044004462
:103EA00000440044004C003400000000000000000A
:103EB00000440044002800280028001000000000F2
:103EC00000000000005400540054006C002800283A
:103ED0000000000000000000004400280010001056
:103EE00000280044000000000000000000440044DE
:103EF00000280028001000100010006000000000E2
:103F0000007C0008001000200040007C0000000041
:103F100000180010001000100020002000100010F9
:103F20000010001800100010001000100010001009
:103F300000100010001000100030001000100010E1
:103F40000008000800100010001000300000000001
:103F500000000074004C00000000000000000000A1
:103F600000093D0000127A000024F400408651014F
:103F700000366E0100093D0000093D0000093D00CA
:103F8000A03F000800000020D8000000BE2E00085E
:103F900078400008D8000020C8080000CE2E000895
:103FA0000000000000000000000000000000000011
:103FB0000000000000000000000000000000000001
:103FC00000000000000000000000000000000000F1
:103FD00000000000000000000000000000000000E1
:103FE00000000000000000000000000000000000D1
:103FF00000000000000000000000000000000000C1
:1040000000000000000000000000000000000000B0
:1040100000000000000000000000000000000000A0
:104020000000000000000000000000000000000090
:104030000000000000000000000000000000000080
:104040000000000000000000000000000000000070
:104050000000000000000000000000000000000060
:10406000070A0000F437000800127A00010000007F
:08407000040000000000000044
:04000005080000C12E
:00000001FF
